:020000040800F2
:10000000B01A002039130008791300087B13000888
:100010007F13000883130008871300080000000006
:100020000000000000000000000000008B1300082A
:100030008D130008000000008F13000891130008C2
:1000400053130008531300085313000853130008F8
:1000500053130008531300085313000853130008E8
:1000600053130008531300085313000853130008D8
:1000700053130008531300085313000853130008C8
:1000800053130008531300085313000853130008B8
:1000900053130008531300085313000853130008A8
:1000A0005313000853130008531300085313000898
:1000B0005313000853130008531300085313000888
:1000C0005313000853130008531300085313000878
:1000D00053130008972D000853130008531300080A
:1000E0005313000853130008531300085313000858
:1000F0005313000853130008531300085313000848
:100100005313000853130008531300085313000837
:100110005313000853130008531300085313000827
:100120005313000853130008531300085313000817
:100130005313000853130008531300085313000807
:100140005313000853130008531300085F0A0008F4
:1001500053130008531300085313000853130008E7
:1001600053130008531300085313000853130008D7
:1001700053130008531300085313000853130008C7
:10018000531300085313000800F002F800F0B2F80F
:100190000AA090E8000C82448344AAF10107DA45E2
:1001A00001D100F0A7F8AFF2090EBAE80F0013F082
:1001B000010F18BFFB1A43F0010318471C7400001D
:1001C0003C7400000A444FF0000C10F8013B13F09F
:1001D000070408BF10F8014B1D1108BF10F8015BA0
:1001E000641E05D010F8016B641E01F8016BF9D193
:1001F00013F0080F1EBF10F8014BAD1C0C1B09D1EA
:100200006D1E58BF01F801CBFAD505E014F8016B5B
:1002100001F8016B6D1EF9D59142D6D370470000ED
:100220000023002400250026103A28BF78C1FBD8FF
:10023000520728BF30C148BF0B6070476E2905F0D8
:100240005982702905F0A383662906F03286652954
:1002500006F02F86672906F02C86612906F02B868A
:1002600003681B0A28BF41F08001692905F0068256
:10027000642905F00382752905F000826F2905F0D5
:100280003083782905F06F83E92905F0CB82E429D2
:1002900005F0C882F52905F0C582EF2905F02D8308
:1002A000F82905F06E830368DB0928BF41F080015F
:1002B000632906F07180732906F07680E32906F041
:1002C0008180F32906F08680002070471FB506F074
:1002D000EBFD06F0D1F804000020002106F0CEFD71
:1002E000401C60600020002106F0B2FDE0601FBDF0
:1002F00010B510BD06F092F81146FFF7E7FF00F0C9
:1003000009F806F06FF903B4FFF7F2FF03BC02F03F
:10031000E3FC00001CB500BF4FF4E13002F0E9FC43
:10032000542002F057FC00F077F81D490868804718
:100330000021022000F098FBC82002F0ADFC184814
:1003400041694FF6FF7088474FF478400521CDE9A9
:1003500000101348082343F239020A21046B0020DD
:10036000A0474FF478400521CDE900100C48082340
:1003700043F239021E21046B9620A0470020009012
:100380000748082307A22821C46A1420A04705E0D3
:1003900006A000F092FB142002F07EFCF8E70000BB
:1003A000A8010020415361736400000061737274FE
:1003B000720000001A481B4908601B4848601B482F
:1003C00088601B48C8601B4808611B4848611B487F
:1003D00088611B48C8611B4808621B4848621B486B
:1003E00088621B48C8621B4808631B484863704703
:1003F0001A480C4988631A490A48C163704719486A
:100400000849086418490748416418498164184933
:10041000C16418490165704700B5FFF7CBFF00BD07
:100420000D0C0008A8010020FF100008A30E000812
:10043000B70B0008D70B0008590E00082F0E000854
:10044000F90B0008E10D00080F0F00088D0F0008E0
:10045000F90F0008311000089F1000081913000858
:100460005F180008690A0008810A0008A30A00084A
:10047000BB0A0008D30A000870B505460E460223E1
:1004800040228121284604F081FA022340220121E2
:10049000284604F07BFA032308228221284604F030
:1004A00075FAFB4C0220207100206071F949086840
:1004B00080474023F84A0121284604F0C0FA002072
:1004C00070BD70B504460D468121204604F092FAB5
:1004D0000121204604F08EFA8221204604F08AFA97
:1004E000EC4948688047002070BD70B505460C4651
:1004F000207800F0600068B3202825D1E088D8B1CA
:10050000207800F0800058B1E2886078E1498B687B
:10051000E2499847E288E149284602F009FE11E0E5
:100520006078DF490860E088DE490860E288DB49DE
:10053000284602F023FE05E06078D64900228B6849
:1005400011469847002070BD2146284602F06AFEF9
:100550000220F8E76078062804D00A2808D00B2883
:1005600018D10BE02146284602F05CFE0220EAE7A3
:100570000122CD49284602F0DBFD0BE0A0780128DE
:1005800003DAA078C849086003E02146284602F053
:1005900049FE00BF00BF0020D5E710B50446C048A3
:1005A0000068FF280AD0BB488368BE48BB49026880
:1005B000BB4800689847FF20B9490860002010BD7B
:1005C0002DE9F04106460F46B8480078012838D199
:1005D000B748006818B90020B449087031E0B44841
:1005E000006840280ED9B348008885B24024B1483D
:1005F00000684030AF490860AD4800684038AC49F9
:10060000086014E0AB48008885B2A948008884B22D
:10061000A8480068A64909680844A649086000205F
:10062000A3490860402C02D10220A0490870A248CA
:10063000421923468121304604F02AFA0020BDE801
:10064000F0819A480078022808D100231A468121B7
:10065000304604F01DFA0020944908700020EEE7AF
:1006600070B504460D4605EB850104F55D7000EBA1
:10067000C100008B86B287483146026986489047A0
:100680004023854A0121204604F0D9F9002070BD9D
:1006900070B506468548007800285BD1854800681B
:1006A000B0F5006F02D100208249086081480068DF
:1006B00082490968884203D100207C49087070BDD6
:1006C0007C4800687D490968884206D979480068F5
:1006D000C0F500607649086006E078480068754912
:1006E0000968401A7249086071480068402811D9A9
:1006F0007048008885B240246E48006840306D49DB
:1007000008606B4800684038694908600120674903
:10071000087018E06748008885B26548008884B290
:10072000644800686249096808446249086000201A
:100730005F490860402C03D102205C49087002E048
:1007400001205A4908705C484219234681213046ED
:1007500004F09EF900BFB2E710B50446584801689E
:100760000068401C564A1060052905D1002011463A
:1007700008602046FFF78CFF002010BD0246432092
:10078000088050487047002070470020704703469B
:100790000020704700207047704770B504460D4632
:1007A00029462046FFF7F8FF002070BD01460020D3
:1007B00070470246122008803548704702460420E0
:1007C00008804148704770B505460C462DB9224651
:1007D0003E493FA003F066F804E022463B4945A0AD
:1007E00003F060F8394870BD70B505460C462246E6
:1007F000364949A003F056F8344870BD30B50B4671
:10080000002100BF16E00A24B4EB107F05D9302484
:1008100004EB107403F8114005E0412404EB10745C
:100820000A3C03F81140000100254C00641C1D55D2
:100830004C1CE1B29142E6DB30BD70B53B48046828
:10084000001D0568001D0668344454B1082238496B
:100850002046FFF7D3FF0422354910312846FFF721
:10086000CDFF70BD70B505460C461A202080FFF7FD
:10087000E4FF2F48801E70BD70B505460C462DB9AB
:10088000224612492BA003F00DF85FE058E000006B
:10089000C4000020940000203F020020040000203B
:1008A0001C00002020000020000000201800002074
:1008B00014000020100000207F0200200C00002007
:1008C0002001002050000020E00000207F0A0020CE
:1008D00053544D3332205669727475616C20436FE6
:1008E0006D506F727420696E204853206D6F64657F
:1008F0000000000053544D33322056697274756104
:100900006C20436F6D506F727420696E20465320C7
:100910004D6F64650000000053544D6963726F654C
:100920006C656374726F6E6963730000107AFF1FE9
:10093000E600002056435020436F6E666967000052
:1009400022467449AFF2140002F0ACFF714870BD4A
:1009500070B505460C462DB922466E496EA002F0D0
:10096000A1FF04E022466B496BA002F09BFF69489F
:1009700070BD1CB504460121084601F0D9FB4FF4B7
:10098000C850009003208DF8050002208DF8040067
:1009900000208DF806008DF807006946624801F0D6
:1009A00029F90A220821604801F0AFF90A220B2137
:1009B0005D4801F0AAF90A220C215B4801F0A5F973
:1009C0000121880301F00EFC0121802001F0C1FB10
:1009D0001CBD38B504464FF4C06000F0E3FD432071
:1009E0008DF80000514800788DF8010050480078DB
:1009F0008DF8020001208DF80300684600F0D7FD55
:100A000038BD10B50022C0EB0013DB000724B3FB98
:100A1000F4F100BF531C1A468B4200D910BDF9E710
:100A200010B504464FF47A7104FB01F0FFF7E9FFBB
:100A300010BD7047704700203E4908707047012084
:100A40003C490870704702203A49087070470320FB
:100A5000384908707047042036490870704710B54F
:100A6000354804F0E2FC10BD38B504460D46334865
:100A7000334B344A012100902F4802F0D4F938BD9D
:100A80003149324A1268885430490968491C2F4A52
:100A9000116011460968B1F5006F01D100211160A4
:100AA000704730B504460D46002303E0E05CFFF7D5
:100AB000E7FF5B1CAB42F9D330BD10B50346002401
:100AC00003E0185DFFF7DCFF641C185D0028F8D117
:100AD00010BD0FB430B5A1B00024002525A80090AA
:100AE000802101A8009B249A04F016FD054605E02C
:100AF00001A9085DFFF7C4FF601C84B2802C03DAF3
:100B000001A8005D0028F3D1284621B030BC5DF873
:100B100014FB00007F0A002056435020496E746584
:100B20007266616365000000000002401D01002044
:100B30001E0100201C010020940B00200001002059
:100B400024000020A80000207F0200200C000020CC
:100B50001CB50121082001F0EBFA7C200090012057
:100B60008DF8040000208DF8060001208DF80700A4
:100B700002208DF805006946FE4801F03BF81CBDD7
:100B8000002115E000F0800222B11022F94B183349
:100B90001A8003E01022F74B1A331A804206100E17
:100BA0002022F44B18331A809B1C1A804A1CD1B2A5
:100BB0000829E7DB704710B504464020ED491A319B
:100BC000088008200880E0B2FFF7DAFF4020E949FA
:100BD0001831088010BD10B504464020E5491A318F
:100BE00008800820891E0880E0B2FFF7C9FF402076
:100BF000E0491831088010BD30B505460C4628463E
:100C0000FFF7BEFF2046FFF7BBFF30BD10B5FFF773
:100C10009FFF0420D74918310880C82001F0F4FF55
:100C20000420D4491A3108804FF4487001F0ECFFD9
:100C30000420D049183108804FF4487001F0E4FFD7
:100C40001120FFF7B8FF322001F0DEFF2620FFF76A
:100C5000B2FF0420FFF7BFFFB120FFF7ACFF0C206D
:100C6000FFF7B9FF1420FFF7B6FFC020FFF7A3FF7F
:100C70000C20FFF7B0FF0520FFF7ADFFC120FFF705
:100C80009AFF0220FFF7A7FFC520FFF794FF292056
:100C9000FFF7A1FF4320FFF79EFFC720FFF78BFF61
:100CA0004020FFF798FF3A20FFF785FF0520FFF768
:100CB00092FF2A20FFF77FFF0020FFF78CFF002024
:100CC000FFF789FF0020FFF786FF7F20FFF783FFF4
:100CD0002B20FFF770FF0020FFF77DFF0020FFF7BC
:100CE0007AFF0020FFF777FF9F20FFF774FF362081
:100CF000FFF761FF6820FFF76EFFB720FFF75BFF8C
:100D00000020FFF768FFF220FFF755FF0120FFF7F3
:100D100062FFE020FFF74FFF3620FFF75CFF29203E
:100D2000FFF759FF1220FFF756FF2220FFF753FF6E
:100D30001C20FFF750FF1520FFF74DFF4220FFF763
:100D40004AFFB720FFF747FF2F20FFF744FF13208C
:100D5000FFF741FF1220FFF73EFF0A20FFF73BFF9E
:100D60001120FFF738FF0B20FFF735FF0620FFF7B4
:100D700032FFE120FFF71FFF0920FFF72CFF1620AD
:100D8000FFF729FF2D20FFF726FF0D20FFF723FF98
:100D90001320FFF720FF1520FFF71DFF4020FFF76E
:100DA0001AFF4820FFF717FF5320FFF714FF0C200E
:100DB000FFF711FF1D20FFF70EFF2520FFF70BFFA8
:100DC0002E20FFF708FF3420FFF705FF3920FFF73B
:100DD00002FF2920FFF7EFFE2C20FFF7ECFE10BDED
:100DE000F0B507460C4615461E462A20FFF7E3FEDF
:100DF000380AFFF7F0FE3846FFF7EDFE200AFFF74E
:100E0000EAFE2046FFF7E7FE2B20FFF7D4FE280A74
:100E1000FFF7E1FE2846FFF7DEFE300AFFF7DBFEB4
:100E20003046FFF7D8FE2C20FFF7C5FEF0BD10B509
:100E3000044640204F491A3108800820891E088046
:100E4000C4F30720FFF79CFEE0B2FFF799FE4020B5
:100E500048491831088010BD70B50446802300222F
:100E6000A0211046FFF7BCFF402042491A310880FC
:100E70000820891E088000250CE0002607E0C4F346
:100E80000720FFF77DFEE0B2FFF77AFE761CA02E6A
:100E9000F5D36D1C802DF0D34020364918310880E1
:100EA00070BD70B588B020223349684604F04EFB0F
:100EB0007F2300229F211046FFF792FF40202D49FB
:100EC0001A3108800820891E0880002414E00025BB
:100ED0000FE000260AE03DF82410C1F30720FFF7D9
:100EE0004FFE1DF82400FFF74BFE761CA02EF2D318
:100EF0006D1C102DEDD3641C082CE8D3002500BF19
:100F000000BF40201B491A31088008B070BD2DE990
:100F1000F04F04460D461646DDF824A0A34605F121
:100F20000F032A46E11D2046FFF75AFFA6F13700BE
:100F3000C6B2002726E0114800EB061010F8078023
:100F40004FF0000912E008F0800018B15046FFF79A
:100F50006EFF03E04FF6FF70FFF769FF4FEA48604E
:100F60004FEA106809F1010000F0FF09B9F1080F1C
:100F7000E9DB05E0000C0240BC740008BC6E000810
:100F8000781CC7B2102FD6DBBDE8F08F2DE9F04FEB
:100F900004460D461646DDF824A0A34605F10F03CE
:100FA0002A46E11D2046FFF71BFF00BF00271FE078
:100FB000804800EB061010F807804FF0000912E09F
:100FC00008F0800018B15046FFF731FF03E04FF6FC
:100FD000FF70FFF72CFF4FEA48604FEA106809F1F5
:100FE000010000F0FF09B9F1080FE9DB781CC7B276
:100FF000102FDDDBBDE8F08F2DE9F84105460F46E7
:1010000014461E46DDF81C800AE0CDF800802278E8
:10101000334639462846FFF77AFFA81985B2641C83
:101020002078412802DB20787A28EEDDBDE8F881BF
:101030002DE9FC4F0546894616469A46DDE90B7BAD
:10104000B046002427E064B10A2098FBF0F01FFAB4
:1010500080F80A2098FBF0F100FB1180C0B20190EB
:1010600006E00A2096FBF0F100FB1160C0B201908F
:10107000381B05EBC000401E80280ADA391B05EB3F
:10108000C10188B25346CDF800B04946019AFFF736
:101090007DFF601CC4B2BC42D5DBBDE8FC8F2DE9EE
:1010A000F04F04460D46DDE9099AA34605F10F030A
:1010B0002A46E11D2046FFF793FE4FF0000819E095
:1010C000002711E006F0800018B15046FFF7AFFE90
:1010D00006E0B9F1000F03D14FF6FF70FFF7A7FE4E
:1010E0007006060E781CC7B2082FEBDB08F1010072
:1010F00000F0FF08B8F1200FE2DBBDE8F08F30B55B
:101100007F2300229F211046FFF76AFE40202A49D4
:1011100008800820891E0880F820FFF731FD002094
:10112000FFF72EFD002406E0FF20FFF729FDFF203A
:10113000FFF726FD641C9E2CF6D30020FFF720FD50
:101140001F20FFF71DFD002517E0F820FFF718FD11
:101150000020FFF715FD002406E00020FFF710FD3A
:101160000020FFF70DFD641C9E2CF6D30020FFF736
:1011700007FD1F20FFF704FD6D1C7E2DE5D3F82031
:10118000FFF7FEFC0020FFF7FBFC002406E0FF2039
:10119000FFF7F6FCFF20FFF7F3FC641C9E2CF6D350
:1011A0000020FFF7EDFC1F20FFF7EAFC402002497A
:1011B000088030BDBC6E00081A0C02401CB501212D
:1011C000022000F0B5FF0120009003208DF80400FC
:1011D00000208DF807006946524800F00BFD012100
:1011E000022000F0A5FF0220009003208DF80400EB
:1011F00000208DF8070069464A4800F0FBFC0121F9
:10120000084600F095FF4020009003208DF8040070
:1012100000208DF807006946434800F0EBFC1CBD38
:1012200000B599B00121880500F082FF3F480B907E
:101230003F480C9000200D9003200E9000200F904E
:101240004FF4806010904000119080001290401187
:101250001390400214900020159001201690002059
:10126000179018900A900AA9324801F081FB0121D9
:10127000304801F0B7FB0121080200F0B3FF002065
:1012800000904FF480300190002002904FF4706085
:101290000390684600F030FA04A800F023FA00201A
:1012A000049001208DF814008DF8150000200690A0
:1012B0000790089003208DF8240004A91B484C389F
:1012C00000F0EBF900230122082118484C3800F007
:1012D0006AFA00230222092114484C3800F063FA0C
:1012E00000230322062111484C3800F05CFA01214A
:1012F0000E484C3800F002FB01210C484C3800F03D
:10130000F2FA012109484C3800F00DFA07484C3830
:1013100000F0A5FA19B000BD10B5FFF74FFFFFF7B9
:101320007FFF10BD00040240000002404C2001403D
:101330002C010020106402400948804709480047FA
:10134000FEE7FEE7FEE7FEE7FEE7FEE7FEE7FEE775
:10135000FEE7FEE704480549054A064B70470000D2
:101360007114000889010008B0120020B01A002092
:10137000B0160020B0160020704700BFFEE700BF87
:10138000FEE700BFFEE700BFFEE77047704770470B
:10139000704700000CB5002001900090764800686E
:1013A00040F480307449086000BF7348006800F45E
:1013B000003000900198401C0190009818B90198E5
:1013C000B0F5A04FF1D16C48006800F4003010B1C6
:1013D0000120009001E0002000900098012846D1F3
:1013E00065484030006840F08050634940310860F3
:1013F0006248006840F44040604908605E48083038
:1014000000685D49083108600846006840F4004003
:1014100008600846006840F4A05008605848091F5A
:101420000860081F006840F08070091F086000BF56
:101430005148006800F000700028F9D040F20570B3
:10144000504908604C480830006820F003004A49C1
:10145000083108600846006840F00200086000BFDC
:1014600045480830006800F00C000828F8D10CBD91
:1014700010B54548006840F47000434908603E4894
:10148000006840F001003C49086000203A490831FA
:101490000860394800683D490840374908603C48C1
:1014A000091D0860081F006820F48020091F0860DB
:1014B000002031490C310860FFF76CFF4FF00060ED
:1014C00031498039086010BD70B500200022022328
:1014D00000240221284D08352D6805F00C0020B1AC
:1014E000042806D0082834D107E02A4D2A4E35605A
:1014F00033E02A4D284E35602FE01F4D2D1D2D68FD
:10150000C5F380541C4D2D1D2D6805F03F0154B1CD
:10151000224DB5FBF1F5184E361D3668C6F3881618
:1015200005FB06F209E01B4DB5FBF1F5124E361D29
:101530003668C6F3881605FB06F20F4D2D1D2D6883
:10154000C5F301456D1C6B00B2FBF3F5124E35601F
:1015500003E0104D104E356000BF00BF064D08354A
:101560002D68C5F303150E4E705D0B4D2D68C540FB
:10157000094E356070BD0000003802400070004028
:1015800008544007003C024088ED00E0FFFFF6FEF3
:10159000103000240024F4003401002000127A00EE
:1015A0003801002032490143324A1160704770B55A
:1015B000002100230F22C4781CB32E4C246804F4AD
:1015C000E064C4F5E064C4F30721C1F10404E3B2AC
:1015D0000A4144789C40E1B28478144021430C07CE
:1015E000210E254C05786155047804F01F0501246F
:1015F000AC4005786D11AD0005F1E025C5F800415E
:1016000009E0047804F01F050124AC401B4D067866
:10161000761145F8264070BD194A0A400243154B21
:101620001B1F1A60704739B1124A121D126802431B
:10163000104B1B1D1A6006E00E4A121D12688243F1
:101640000C4B1B1D1A607047042808D14FF0E02195
:10165000096941F004014FF0E022116107E04FF009
:10166000E021096921F004014FF0E0221161704787
:101670000000FA050CED00E000E400E080E100E08D
:1016800080FFFF1F10B50121080200F000FE0021BD
:101690004FF4807000F0FBFD10BD30B50246002015
:1016A00000235068F84C20400D790C6844EA05246A
:1016B000204350609068F54C2040D1E903542C43FE
:1016C0008D682C434D7944EA450420439060D06AEC
:1016D00020F470000C7D641EE4B2234340EA035002
:1016E000D06230BD00210160017141718160C16033
:1016F00001610121017570470021E54A1168E54A41
:101700001140D0E900231A4383681A43C3681A437F
:101710001143E14AC2F8041370470021016041609F
:101720008160C160704721B1826842F0010282602D
:1017300003E0826822F00102826070470A460021BD
:101740004168D64B19401143416070474162826243
:1017500070470A460021416821F01F011143416092
:10176000704738B1CA49096841F40001CA4AC2F851
:10177000041306E0C649096821F40001C64AC2F80C
:101780000413704738B1C249096841F48001C24A64
:10179000C2F8041306E0BE49096821F48001BE4A7C
:1017A000C2F804137047F0B504460D46002000212E
:1017B000092D11DDE068A5F10A0606EB46070726AC
:1017C00006FA07F18843A5F10A0606EB460603FA76
:1017D00006F10843E0600CE0206905EB45070726A9
:1017E00006FA07F1884305EB450603FA06F10843BC
:1017F0002061072A0FDA606B561E06EB86071F264C
:1018000006FA07F18843561E06EB860605FA06F12E
:101810000843606322E00D2A0FDA206BD61F06EB27
:1018200086071F2606FA07F18843D61F06EB8606B1
:1018300005FA06F10843206310E0E06AA2F10D0604
:1018400006EB86071F2606FA07F18843A2F10D066C
:1018500006EB860605FA06F10843E062F0BD8168F2
:1018600041F0804181607047014600208A6802F0A3
:1018700080420AB1012000E00020704721B1826857
:1018800042F48062826003E0826822F480628260B7
:10189000704721B1826842F00202826003E08268F0
:1018A00022F002028260704710B50A460021002330
:1018B000416821F46041531E41EA4331416010BD4B
:1018C00021B1426842F40062426003E0426822F4BF
:1018D0000062426070470146C86C80B270476C4835
:1018E000001D0068704721B1826842F480728260F6
:1018F00003E0826822F480728260704721B18268BE
:1019000042F40072826003E0826822F40072826016
:10191000704738B15E49096841F400515E4AC2F827
:10192000041306E05A49096821F400515A4AC2F8E2
:1019300004137047F0B50446154600200022002627
:10194000092911DDE068A1F10A0707EB470C072719
:1019500007FA0CF29043A1F10A0707EB470703FAD5
:1019600007F21043E0600CE0206901EB410C07270F
:1019700007FA0CF2904301EB410703FA07F2104318
:101980002061A06BC0F30156EF1C06F1010CA7EB20
:101990000C0707EB870C1F2707FA0CF29043EF1C8C
:1019A00006F1010CA7EB0C0707EB870701FA07F21A
:1019B0001043A063F0BD10B50A4600210023816BDF
:1019C00021F44011531E41EA0351816310BD08B553
:1019D000002300930090009B0B440093009B1A602F
:1019E00008BD0A460021816821F4702111438160FD
:1019F00070470A460021816821F44011114381603B
:101A00007047816841F48001816070470146002081
:101A10008A6802F480020AB1012000E000207047C9
:101A200021B1426842F48062426003E0426822F4DD
:101A300080624260704721B1426842F48052426045
:101A400003E0426822F480524260704708B50246C3
:101A500000200090009201F12800009B18440090A3
:101A60000098006880B208BD10B50B460021D9B2BD
:101A7000012404FA01F11AB144680C43446002E005
:101A800044688C43446010BDFFFEFFFCFDF7FFC0BF
:101A900004230140E030FCFF00200140FFFD3FFF38
:101AA0000246002013680B400BB1012000E000202B
:101AB0007047CA430260704770B502460020002399
:101AC00000240B12556801268E4005EA06041568AD
:101AD0001D4015B10CB1012000E0002070BD0022B6
:101AE0000A12D3430360704710B5044698488442F5
:101AF00008D10121084600F086FB0021012000F0FA
:101B000082FB76E09348844208D10121022000F054
:101B10007AFB0021022000F076FB6AE08E488442C6
:101B200008D10121042000F06EFB0021042000F008
:101B30006AFB5EE08948844208D10121082000F058
:101B400062FB0021082000F05EFB52E084488442E2
:101B500008D10121102000F056FB0021102000F0D8
:101B600052FB46E07F48844208D10121202000F04A
:101B70004AFB0021202000F046FB3AE07A488442EC
:101B800008D10121402000F03EFB0021402000F060
:101B90003AFB2EE07548844208D10121802000F0F4
:101BA00032FB0021802000F02EFB22E070488442AE
:101BB00008D10121801500F026FB0021A01500F0BE
:101BC00022FB16E06B48844208D10121401500F049
:101BD0001AFB0021601500F016FB0AE066488442FB
:101BE00007D10121001500F00EFB0021201500F0A7
:101BF0000AFB10BDF0B50A4600210023002400BFF7
:101C00003DE0012505FA01F3156805EA03049C424D
:101C100034D105684F000326BE40B54305601579F1
:101C20004E00B5400668354305601579012D02D098
:101C30001579022D16D185684F000326BE40B543A5
:101C4000856055794E00B5408668354385604568A6
:101C500001268E40B5434560456896798E40B6B200
:101C600035434560C5684F000326BE40B543C56097
:101C7000D5794E00B540C6683543C560491C10296A
:101C8000BFD3F0BD4FF6FF710160002101714171BA
:101C90008171C171704708B54FF480320092009A8B
:101CA0000A430092009AC261C161009AC261C2698E
:101CB0000092C269009208BD0246002013690B40E1
:101CC0000BB1012000E0002070470146086980B296
:101CD00070470246002053690B400BB1012000E021
:101CE000002070470146486980B270470183704701
:101CF000418370470AB1018300E04183704741612D
:101D0000704742694A4042617047F0B500230024A1
:101D10004D07ED0E02FA05F3CE1000F1200555F83F
:101D200026504E07F70E0F26BE40B543CF1000F1E8
:101D3000200646F82750CE1000F1200555F8265011
:101D400045EA0304CE1000F1200545F82640F0BD19
:101D5000000002400004024000080240000C024063
:101D6000001002400014024000180240001C024013
:101D7000002002400024024000280240F948006888
:101D800040F00100F74908600020F649083108607A
:101D9000F4480068F4490840F2490860F348091D16
:101DA0000860F348EF4984310860F0481038091D95
:101DB0000860EC48006820F48020EA4908600020B0
:101DC000E8490C310860E7498C3108607047002110
:101DD000E44A921C117011460870704710B5014614
:101DE0000022002300204A11012A02D1DD4C236881
:101DF00008E0022A03D1DB4C7034236802E0D94C9E
:101E00007434236801F01F02012494401C400CB17B
:101E1000012000E0002010BD38B500200090002413
:101E2000002500BF3120FFF7D9FF05460098401C70
:101E300000900098B0F5A04F01D0002DF2D03120D5
:101E4000FFF7CCFF08B1012400E00024204638BD94
:101E500001460020C34A106820F0F80040EAC100A3
:101E600010607047C349086070470021BD4A703256
:101E700011701170012802D004280AD104E0012158
:101E8000B84A7032117005E00521B64A70321170FF
:101E900000E000BF00BF7047B7490860704770B5E9
:101EA000049C41EA82150126C6EB530645EA064525
:101EB000054345EA0465AB4E361D356070BDAD493E
:101EC00008667047820142EA0172A64B84331A60A9
:101ED0007047A8498866704710B5830143EA0163DB
:101EE00043EA02739F4C8834236010BDA149086700
:101EF0007047A049C864704702460020994B0833D8
:101F0000186820F0EC6042EA01031843954B08334F
:101F10001860704702460020924B0833186820F082
:101F2000784042EA010318438E4B0833186070472B
:101F3000014600208B4A0832106820F00300084355
:101F40001060704787480830006800F00C00704748
:101F500001460020834A0832106820F0F000084350
:101F600010607047014600207E4A0832106820F455
:101F7000E05008431060704701460020794A08325B
:101F8000106820F4604040EAC10010607047F0B56E
:101F9000002100220024022500260223714F083769
:101FA0003F6807F00C0121B1042905D0082937D179
:101FB00005E0724F076036E0714F076033E0694F0C
:101FC0003F1D3F68C7F38056664F3F1D3F6807F0CF
:101FD0003F036EB16A4FB7FBF3F7DFF888C10CF12E
:101FE000040CDCF800C0CCF3881C07FB0CF40CE0FC
:101FF000624FB7FBF3F7DFF86CC10CF1040CDCF8AF
:1020000000C0CCF3881C07FB0CF4564F3F1D3F6803
:10201000C7F301477F1C7D00B4FBF5F7076002E0C2
:10202000564F076000BF00BF4E4F08373F6807F0AC
:10203000F0010909534F7A5C0768D7404760494F60
:1020400008373F6807F4E051890A4E4F7A5C4768C9
:10205000D7408760434F08373F6807F46041490B1A
:10206000484F7A5C4768D740C760F0BD002100F454
:102070004072B2F5407F0AD13A4A0832116821F421
:10208000F811414A02401143364A08321160354A7C
:1020900070321268C0F30B031A43324B70331A606C
:1020A0007047354944390860704733494039086002
:1020B000704736490860704701460020294A8C3233
:1020C000106820F01F004A1E1043264A8C32106010
:1020D000704701460020234A8C32106820F4F850E3
:1020E0004A1E40EA02201F4A8C32106070470146A7
:1020F00000201C4A8C32106820F440100843106005
:10210000704701460020174A8C32106820F44000C6
:1021100008431060704701460020124A8C32106854
:1021200020F4403008431060704719490860704738
:1021300039B10C4A3032126802430A4B30331A600C
:1021400006E0084A303212688243064B30331A6088
:102150007047F9B1034A343212680243014B3433F9
:102160001A601CE000380240FFFFF6EA103000243D
:102170000030002000004742800E47420024F40057
:1021800000127A0048010020FFFCFF0F5C0147426B
:10219000E01147428F4A126882438E4B1A607047A3
:1021A00039B18C4A121D126802438A4B1B1D1A60FA
:1021B00006E0884A121D12688243864B1B1D1A6076
:1021C000704739B1834A0C3212680243814B0C3399
:1021D0001A6006E07F4A0C32126882437D4B0C3352
:1021E0001A60704739B17B4A103212680243794B4A
:1021F00010331A6006E0774A103212688243754B3A
:1022000010331A60704739B1724A243A1268024397
:10221000704B243B1A6006E06E4A243A12688243EF
:102220006C4B243B1A60704739B16A4A203A1268F5
:102230000243684B203B1A6006E0664A203A126867
:102240008243644B203B1A60704739B1614A1C3AA3
:10225000126802435F4B1C3B1A6006E05D4A1C3A61
:10226000126882435B4B1C3B1A60704739B1594A74
:10227000143A12680243574B143B1A6006E0554A61
:10228000143A12688243534B143B1A60704739B1B9
:10229000504A103A126802434E4B103B1A6006E057
:1022A0004C4A103A126882434A4B103B1A607047FE
:1022B00039B1484A1C3212680243464B1C331A603B
:1022C00006E0444A1C3212688243424B1C331A60B7
:1022D000704739B13F4A2032126802433D4B2033E8
:1022E0001A6006E03B4A203212688243394B2033A1
:1022F0001A60704739B1374A243212680243354BAD
:1023000024331A6006E0334A243212688243314B88
:1023100024331A60704739B12E4A2C3212680243B6
:102320002C4B2C331A6006E02A4A2C321268824366
:10233000284B2C331A60704739B1264A3032126864
:102340000243244B30331A6006E0224A30321268CE
:102350008243204B30331A607047012808D11D4951
:102360003C31096841F008011A4A3C32116007E02B
:1023700018493C31096821F00801164A3C321160C5
:10238000704739B1134A273A12780243114B273B61
:102390001A7006E00F4A273A127882430D4B273B0A
:1023A0001A7070470B484030006840F0807009494F
:1023B00040310860704701460020064A283A1268FA
:1023C0000A400AB1012000E0002070470149263987
:1023D000087070473438024010B50446FA48844209
:1023E00008D101211020FFF752FF00211020FFF734
:1023F0004EFF57E0F548844209D101214804FFF718
:1024000035FF00214FF40030FFF730FF4AE0F0487D
:10241000844209D101218804FFF728FF00214FF4ED
:102420008020FFF723FF3DE0EA48844209D10121E3
:10243000C804FFF71BFF00214FF40020FFF716FF31
:1024400030E0E548844209D101210805FFF70EFF7D
:1024500000214FF48010FFF709FF23E0DF4884429A
:1024600008D101212020FFF712FF00212020FFF7D3
:102470000EFF17E0DA48844209D101218807FFF7EF
:10248000F5FE00214FF08040FFF7F0FE0AE0D5484E
:10249000844207D101214005FFF7E8FE00216005D5
:1024A000FFF7E4FE10BD2DE9FF4705460E46002468
:1024B000A14600BFA046B08900B100BF2C8A24F419
:1024C0004054F08804432C82AC8941F20C60844370
:1024D000B08831890843718908430443AC81AC8AD0
:1024E00024F44074B0890443AC826846FFF74FFD82
:1024F000B548854202D0B948854202D1DDF80C903A
:1025000001E0DDF80890A88900F4004040B109EB33
:10251000C90000EB091031684900B0FBF1F707E092
:1025200009EBC90000EB091031688900B0FBF1F735
:102530006420B7FBF0F004012009642101FB10784E
:10254000A88900F4004040B1322000EBC800B0FB85
:10255000F1F000F00700044308E0322000EB08101F
:102560006421B0FBF1F000F00F0004432C81BDE8C2
:10257000FF874FF41651016000218180C1800181E5
:102580000C21418100218181704710B50246002055
:10259000108A20F470600B884C8823438C88234376
:1025A000CC8823431843108210BD00210180418054
:1025B0008180C180704721B1828942F400528281BA
:1025C00004E082894DF6FF731A4082817047028BC6
:1025D00002F47F420283028B0A430283704721B1D7
:1025E000828942F40042828103E08289C2F30E02B2
:1025F0008281704721B1828A42F40062828204E0C3
:10260000828A4FF2FF731A4082827047C1F3080238
:102610008280704701468888C0F308007047028AAC
:102620004FF6F0731A400282028A0A430282704710
:1026300021B1828942F00202828104E082894FF650
:10264000FD731A408281704782894FF2FF731A40EE
:10265000828182890A4382817047028A4FF6DF7342
:102660001A400282028A0A430282704721B1028A1A
:1026700042F48042028204E0028A4BF6FF731A4061
:1026800002827047818941F001018181704721B147
:10269000828A42F00802828204E0828A4FF6F7734F
:1026A0001A4082827047028BD2B20283028B42EAC6
:1026B00001220283704721B1828A42F02002828285
:1026C00004E0828A4FF6DF731A408282704721B19C
:1026D000828A42F01002828204E0828A4FF6EF730F
:1026E0001A4082827047828A4FF6FB731A408282B8
:1026F000828A0A438282704721B1828A42F00202B2
:10270000828204E0828A4FF6FD731A40828270470B
:102710001AB1838A0B43838202E0838A8B438382CC
:102720007047F0B50346002400260025002040F63F
:102730006A17B94200D100BF1846C1F3421401F034
:102740001F06012707FA06F5012C01D10C3004E021
:10275000022C01D1103000E014301AB107682F4369
:10276000076002E00768AF430760F0BD0246002043
:10277000B1F5007F00D100BF13880B400BB10120E1
:1027800000E00020704701F40072B2F5007F00D134
:1027900000BFCA430280704770B502460024002380
:1027A0000025002040F66A16B14200D100BFC1F3F7
:1027B000421501F01F03012606FA03F3012D13D180
:1027C0009689334017E000000010014000440040AB
:1027D00000480040004C0040005000400014014000
:1027E00000780040007C0040022D02D1168A334060
:1027F00001E0968A33400C12012606FA04F416888A
:10280000344013B10CB1012000E0002070BD10B5C0
:102810000022002340F66A14A14200D100BF0A1230
:1028200001249440A3B2DC43048010BD016821F070
:10283000010101600021016041608160C1600161AE
:1028400021214161DB49884204D13D21D94A103A16
:1028500091608CE0D7491831884205D14FF47461FA
:10286000D44A103A916082E0D2493031884205D191
:102870004FF47411CF4A103A916078E0CD49483155
:10288000884205D14FF07461CA4A103A91606EE0F7
:10289000C8496031884204D1C749C64A103AD1605C
:1028A00065E0C4497831884204D1C449C14A103A2C
:1028B000D1605CE0BF499031884204D1C049BD4A33
:1028C000103AD16053E0BB49A831884205D14FF09E
:1028D0003D51B84A103AD16049E0BA49884204D122
:1028E0003D21B84A083A116041E0B64918318842A2
:1028F00005D14FF47461B34A083A116037E0B14929
:102900003031884205D14FF47411AE4A083A116053
:102910002DE0AC494831884205D14FF07461A94A95
:10292000083A116023E0A7496031884204D1A249E6
:10293000A44A121F11601AE0A2497831884204D1DA
:102940009E49A04A121F116011E09E4990318842B1
:1029500004D19B499B4A121F116008E09949A83194
:10296000884204D14FF03D51964A121F11607047C2
:1029700010B500220268944B1A40CC680B682343C0
:102980004C6923438C692343CC6923430C6A23435A
:102990004C6A23438C6A23434C6B23438C6B234345
:1029A0001A430260426922F00702D1E90B34234343
:1029B0001A4342610B6943604B6883608B68C36054
:1029C00010BD0021016041608160C1600161416111
:1029D0008161C161016241628162C16201634163DF
:1029E0008163704721B1026842F00102026003E096
:1029F000026822F001020260704721B1026842F4CD
:102A00000042026003E0026822F400420260704764
:102A100021B1026842F02002026003E0026822F065
:102A2000200202607047416070470146486880B2EA
:102A3000704722B1036843F40023036003E0036896
:102A400023F4002303600161704721B1026842F45E
:102A50008022026003E0026822F480220260704754
:102A60000AB1016100E0C1607047014600200A68B8
:102A700002F400220AB1012000E000207047014664
:102A800000200A6802F001020AB1012000E00020E3
:102A90007047014600204A6902F03800704730B59F
:102AA00003460A4600200024464DAB4202D241496B
:102AB000103901E04349103902F000550DB14C685E
:102AC00000E00C68414D2C4004EA02050DB10120E4
:102AD00000E0002030BD02463A4B9A4202D235480F
:102AE000103801E03748103801F000531BB1374B64
:102AF0000B40C36002E0354B0B408360704710B55C
:102B000001F080034BB122B1436943F0800343617C
:102B100003E0436923F08003436180290BD02AB18D
:102B2000036801F01E042343036004E0036801F01E
:102B30001E04A343036010BD70B5024600200024AC
:102B40000025204EB24202D21A4B103B01E01D4B31
:102B5000103B1F4E0E4036B11E2606EAD1241668E1
:102B600006EA040502E0566906F0800501F0005609
:102B70000EB15C6800E01C68144E344004EA0106A3
:102B800016B10DB1012000E0002070BD02460D4BD2
:102B90009A4202D20748103801E00A48103801F082
:102BA00000531BB1094B0B40C36002E0074B0B40C5
:102BB00083607047106002403D000020400F0020FD
:102BC00000003D20106402403F801CF07D0F7D0F0F
:102BD0003C0F3C0F10B504466FF00400FEF734FDC7
:102BE000E11704EB5171C1F3C701394A1170104666
:102BF000007800EB4001C1EBC0104FF6FF7101EA15
:102C0000C0003449088010BD0146314A12784A4359
:102C10004FF0E0235A6100229A611A46126942F08D
:102C200001021A6100BF4FF0E022106900F00102BA
:102C30001AB100F48032002AF5D04FF0E022126978
:102C400022F001024FF0E0231A6100229A617047DE
:102C50000146204A12884A434FF0E0235A6100227D
:102C60009A611A46126942F001021A6100BF4FF0E0
:102C7000E022106900F001021AB100F48032002A4B
:102C8000F5D04FF0E022126922F001024FF0E0236C
:102C90001A6100229A61704770B504464FF40770BC
:102CA00094FBF0F0C6B24FF4077094FBF0F100FB18
:102CB000114085B205E04FF40770FFF7C9FF701EA1
:102CC000C6B2002EF7D115B12846FFF7C1FF70BD7F
:102CD000580100205A01002000BF704700BF4C4A35
:102CE000128802F04002002AF9D0C2B2484B9A8002
:102CF000704710B588B0044601210846FFF718FA5E
:102D000001211020FFF76EFA072209214148FEF742
:102D1000FCFF07220A213F48FEF7F7FF4FF4C0608F
:102D2000069002208DF81C008DF81D0000208DF803
:102D30001E0001208DF81F0006A93648FEF75AFF35
:102D400002940020ADF80C00ADF80E00ADF81000B4
:102D5000ADF814000C20ADF8120002A92C48FFF7C2
:102D6000A2FB01212A48FFF726FC012240F225514F
:102D70002748FFF7D6FC25208DF8040003208DF8A6
:102D800005008DF8060001208DF8070001A8FEF768
:102D90000EFC08B010BD10B540F225511C48FFF7DD
:102DA000FBFC10B31A48FFF735FCC4B21A48008880
:102DB00000F40040C8B91848008800F4804060B1B1
:102DC0000A2C03D000201449088020E01248008813
:102DD00040F400401049088019E00D2C06D10E483F
:102DE000008840F480400C49088010E00A480088C0
:102DF000C0F30D0009490C5407480088401C0649DF
:102E0000088008460088C72801DD0020088010BD22
:102E100000100140000002406001002088110020E5
:102E20000146002070472DE9F04104460F46154643
:102E30001E46DDF818802046FDF79BFD2046FFF773
:102E4000EFFFC4F8E465C4F8E885C4F8EC553946EA
:102E5000204601F04DFDD4F8E8150868804720466B
:102E6000FDF7B7FDBDE8F0811CB504466946204674
:102E700000F0EAFC9DF8000000F01F0020B10128DE
:102E800007D002280FD109E06946204600F0BCFBBC
:102E900011E06946204600F0F0FB0CE06946204650
:102EA00000F011FC07E09DF8000000F080012046D2
:102EB00001F015FE00BF00BF00201CBD70B5054627
:102EC0000E46A6BB05F55D7440F21110405D032867
:102ED0003DD1A168E069884217D9A168E069401A2C
:102EE000E061E878012803D1D4E902100844E060E9
:102EF000A368E069984201D2E06900E0A06882B26C
:102F00002846E16800F051F921E0D5F8E4050069B0
:102F100048B14FF48970405D032804D1D5F8E40529
:102F2000016928468847284600F04EF90FE0FFE780
:102F3000D5F8E405806950B14FF48970405D0328ED
:102F400005D1D5F8E405314682692846904700202E
:102F500070BD0146754802680869426000207047EC
:102F600070B505460E46002E5DD105F58E7440F213
:102F70001110405D022849D1A168E069884217D943
:102F8000A168E069401AE061E878012803D1D4E93A
:102F900002100844E060A08B82B22846E16800F08D
:102FA000DEF800231A461946284601F048FD2DE0B8
:102FB000A168206AB0FBF1F201FB1200A8B9A16878
:102FC000206A884211D3D4E9080188420DD2002238
:102FD0001146284600F0C3F80020606200231A461C
:102FE0001946284601F02BFD10E0D5F8E405C0682D
:102FF00048B14FF48970405D032804D1D5F8E40549
:10300000C16828468847284600F0F0F84FF48B70D6
:10301000405D012816D12846FFF79BFF00214FF4A1
:103020008B7041550EE0D5F8E405406950B14FF47E
:103030008970405D032805D1D5F8E4053146426921
:1030400028469047002070BD10B50446002340225A
:103050001946204601F09AFC002340228021204698
:1030600001F094FC01214FF489700155A078D4F847
:10307000E82551688847002010BD10B50446D4F8F3
:10308000E8150869804740F21310015D401E0155A4
:1030900003210155002010BD10B504464FF489707E
:1030A000015D401C01550421401E0155D4F8E8156E
:1030B000C8688047002010BD10B50446D4F8E40568
:1030C000C06920B1D4F8E405C169204688470020D2
:1030D00010BD70B504460D46D4F8E40529460268D3
:1030E00020469047D4F8E81588688047002070BDD6
:1030F00070B504460D46D4F8E405294642682046DA
:103100009047002070BD10B50446D4F8E405016A6C
:1031100020468847002010BD10B50446D4F8E405C9
:10312000416A20468847002010BD0000640100204D
:103130002DE9F04104460E4615460027C4F83C51DF
:10314000C4F83851022140F2111001552B46324685
:103150000021204601F09CFC3846BDE8F0812DE9B5
:10316000F04106460C46154600272B462246002114
:10317000304601F08DFC3846BDE8F0812DE9F04184
:1031800004460E4615460027C4F89453C4F89053DD
:10319000032140F2111001552B46324600212046F2
:1031A00001F04DFC3846BDE8F0812DE9F0410646BE
:1031B0000C46154600272B4622460021304601F0DA
:1031C0003EFC3846BDE8F08170B504460025042178
:1031D00040F21110015500231A461946204601F00D
:1031E00057FC204601F016FA284670BD70B504461B
:1031F0000025052140F21110015500231A461946F9
:10320000204601F01CFC204601F004FA284670BD5F
:10321000024601EB810302F55D7000EBC300008BF9
:1032200080B2704770B504460D468021204601F0FB
:1032300056FC0021204601F052FC204601F0EAF93C
:1032400070BD70B504460D464FF48970005D0228CC
:1032500002D0032812D100E000BF688801280CD1F9
:1032600000214FF48C700151D4F8E405294682689E
:10327000204690472046FFF7A7FF04E02946204656
:10328000FFF7D0FF00BF00BF70BDF8B504460D4684
:103290000026688801280DD101214FF48C7001515E
:1032A000D4F8E40529468268204690472046FFF777
:1032B0008BFF3FE0688802283CD12879D0BB206989
:1032C00040680090A8880612062E22D2DFE806F099
:1032D0002103090F151B009820F07000103000909A
:1032E0001DE0009820F070002030009017E000985A
:1032F00020F070003030009011E0009820F0700055
:10330000403000900BE0009820F0700050300090AA
:1033100005E0009820F070001030009000BF00BF62
:10332000FA480099016001214FF48B700155204645
:10333000FFF74AFFF8BD70B504460D464FF489709B
:10334000005D022802D0032813D100E000BF012055
:10335000EF4908604FF48C70005920B108460068AE
:1033600040F0020008600222E9492046FFF7E0FE33
:1033700004E029462046FFF755FF00BF00BF70BD9F
:1033800070B504460D46E888012804D02946204639
:10339000FFF748FF1AE04FF48970005D022802D061
:1033A00003280DD105E00122DA492046FFF7C0FECF
:1033B0000BE0012204F588712046FFF7B9FE04E016
:1033C00029462046FFF72EFF00BF00BF70BD70B535
:1033D00004460D46A878D0490870084600780128B0
:1033E00004DD29462046FFF71DFF55E04FF48970A4
:1033F000005D022802D0032848D117E0C6480078B3
:1034000080B1C548007884F8100103214FF4897019
:103410000155C14801782046FFF75BFE2046FFF7C3
:10342000D3FE02E02046FFF7CFFE34E0BA48007832
:1034300080B902214FF489700155B748007884F8AB
:103440001001B54801782046FFF752FE2046FFF7ED
:10345000BBFE1AE094F81001AF490978884211D0F8
:1034600094F810112046FFF743FEAB48007884F82B
:103470001001A94801782046FFF72BFE2046FFF7F0
:10348000A3FE02E02046FFF79FFE04E02946204607
:10349000FFF7C8FE00BF00BF70BD70B504460D4603
:1034A000A88818BBE88808BBA87800F07F064FF40E
:1034B0008970005D032804D129462046FFF7B2FE3B
:1034C00018E04FF48A7006553146204601F061FB42
:1034D0002046FFF779FE26B102214FF4897001558D
:1034E00008E001214FF48970015503E02946204688
:1034F000FFF798FE70BDF8B504460E46F0880090C0
:1035000070880012082862D2DFE800F061040C180D
:103510006161575CA078D4F8EC150A686946904759
:10352000054659E0A078D4F8E4158A6A69469047C0
:10353000054602216970C4F8F0554DE0B0780628C0
:1035400034D2DFE800F0030B131B232BA078D4F850
:10355000EC154A686946904705462CE0A078D4F8F7
:10356000EC158A6869469047054624E0A078D4F8AF
:10357000EC15CA686946904705461CE0A078D4F867
:10358000EC150A6969469047054614E0A078D4F81E
:10359000EC154A696946904705460CE0A078D4F8D6
:1035A000EC158A6969469047054604E03146204695
:1035B000FFF738FEF8BD00BF0EE031462046FFF7AA
:1035C00031FEF7E731462046FFF72CFEF2E73146A1
:1035D0002046FFF727FEEDE700BFBDF8000088B1E9
:1035E000F08878B1F088BDF80010884202DDBDF89F
:1035F000000000E0F0880090BDF800202946204639
:10360000FFF796FD00BFD5E770B505460C460026CE
:1036100060780A2829D2DFE800F01923281E280A3A
:103620000528140F21462846FFF765FF22E02146B2
:103630002846FFF732FF1DE021462846FFF7C7FE68
:1036400018E021462846FFF79BFE13E02146284656
:10365000FFF771FE0EE021462846FFF716FE09E04F
:1036600021462846FFF7EDFD04E021462846FFF7F6
:10367000D9FD00BF00BF304670BD70B504460D4691
:1036800000264FF48970005D032814D128790128A1
:103690000CDCD4F8E4052946826820469047E88887
:1036A00040B93EB92046FFF78FFD03E0294620468A
:1036B000FFF7B8FD04E029462046FFF7B3FD00BF41
:1036C00000BF304670BD2DE9F04105460E4600278B
:1036D0003479307800F06000202808D1D5F8E4056E
:1036E00031468268284690473846BDE8F0817078B8
:1036F00000285FD0012833D003287DD14FF4897092
:10370000405D02280AD0032823D10FE06401002085
:10371000A00100209C010020A40100202CB1802CDD
:1037200003D02146284601F0DAF917E0708830B955
:103730002CB1802C03D02146284601F0D0F9D5F8D1
:10374000E40531468268284690472846FFF73CFD4D
:1037500004E031462846FFF765FD00BF00BF70E07A
:103760004FF48970405D022802D003281BD107E086
:103770002CB1802C03D02146284601F0B0F917E087
:10378000708878B95CB1802C09D02146284601F0B8
:10379000CAF9D5F8E405314682682846904728469C
:1037A000FFF712FD04E031462846FFF73BFD00BF5E
:1037B00000BF46E04FF48970405D022802D0032824
:1037C00037D107E02CB1802C03D02146284601F0E8
:1037D00086F933E004F08000802812D104F07F00E5
:1037E00000EB800105F58E7000EBC100807820B100
:1037F00001204149086016E022E000203E490860AF
:1038000011E004F0800070B904EB840105F55D70EF
:1038100000EBC100807818B101203749086002E050
:10382000002035490860022233492846FFF780FC12
:1038300004E031462846FFF7F5FC00BF00BF00E07A
:1038400000BF00BF384650E790F8CC250A7090F8CA
:10385000CD254A7090F8CE3590F8CF2503EB0222A3
:103860004A8090F8D03590F8D12503EB02228A8067
:1038700090F8D23590F8D32503EB0222CA80CB888A
:103880004FF4A0721350012340F2111213547047E9
:103890000146002002E0421CD0B2491C0A78002AEE
:1038A000F9D170472DE9F04104460D461746002630
:1038B000FCB12046FFF7ECFF022101EB400038800D
:1038C0003A783046711CCEB22A5403223046711C1D
:1038D000CEB22A540AE014F8012B3046711CCEB245
:1038E0002A5400223046711CCEB22A542078002877
:1038F000F1D1BDE8F08100009801002008B5002159
:103900000091491EC26851606FF08041C2685161E8
:10391000009921F0004101F100410091009921F44A
:10392000006101F5006100910099C268916108BDD4
:10393000F8B50446002600250020009000BF0320B3
:10394000FDF75FF8E06800690090681C0546F749DC
:10395000884201D90020F8BD0098C00F0028EED0A1
:103960000025009820F00100401C00900098E168BC
:10397000086100BFE06800690090681C0546EB49DB
:10398000884200D904E0009800F001000028F1D13D
:1039900000BF0320FDF735F83046DCE72DE9F041A4
:1039A00004460026E078B0B900270020DD1C4FEA6D
:1039B000E57805EB98784FEAA80704F1D00555F8AB
:1039C00022C000BF04E00D68CCF80050091D401C67
:1039D000B842F8D300BF3046BDE8F081F0B50346E9
:1039E0000024D01CC71700EB9777BD10D3F8D06028
:1039F00000BF03E030680860091D641CAC42F9D3C5
:103A00000846F0BD70B502460C4600230020002594
:103A1000D5700125957040259580012C0CD14FF073
:103A2000A0430125D57208251570042555709D15F4
:103A3000D580022515720AE04CB9BD4B0025D57220
:103A40000C251570062555704FF4A065D580D36000
:103A500003F500651561002110E003F5106505EB25
:103A6000411602F1180545F8216003F5306505EBB4
:103A7000411602F1540545F82160491C55788D42E4
:103A8000EBD803F5806555614035C2F8CC50002174
:103A900008E003F5A06505EB411602F1900545F835
:103AA0002160491C15788D42F3D8002108E003F508
:103AB000805505EB013602F1D00545F82160491C1F
:103AC00015788D42F3D803F56065C2F80C5170BDCE
:103AD0003EB5044600250020029001900090207A17
:103AE00001283DD1E068806B0190019820F480307E
:103AF0000190607A28B1019820F4801000F58010C0
:103B000001900198E168886300200290E068C06835
:103B10000290029820F040000290029820F4800069
:103B20000290029820F400300290029820F40020C5
:103B300002900298E168C8602046FFF7F9FEE0783D
:103B4000012843D1009820F01E000A300090009810
:103B500020F02000203000900098E168886035E077
:103B6000E068C0680290029820F040004030029067
:103B70000298E168C8602046FFF7DAFE0020019055
:103B8000019820F4803000F580300190019820F4F5
:103B9000802000F580200190019820F4002000F59D
:103BA00000200190019820F4001000F50010019011
:103BB000607A28B1019820F4801000F580100190FF
:103BC0000198E16888631420FCF72AFFE078012857
:103BD0000FD1E06880680090009820F01E000A3045
:103BE0000090009820F02000203000900098E168BC
:103BF000886028463EBD08B501460020002200929C
:103C0000009A22F00102521C0092CA689268009B3E
:103C10001A43CB689A6008BD08B50146002000220F
:103C20000092009A22F00102521C0092CA68926827
:103C3000009B9A43CB689A6008BDF8B504460D46D0
:103C40000026002700200090009820F0200020305F
:103C50000090009865F38A1000900098E168086170
:103C600000BFE06800690090781C07462F49884231
:103C700000D904E00098C0F340100028F1D100BF43
:103C80000320FCF7BEFE3046F8BDF8B5044600251B
:103C9000002600200090009820F0100010300090C6
:103CA0000098E168086100BFE06800690090701C3E
:103CB00006461E49884200D904E00098C0F300106F
:103CC0000028F1D100BF0320FCF79BFE2846F8BD79
:103CD000F8B504460D460026E068C06800900098DC
:103CE00020F000500090009820F080400090012DBE
:103CF00006D1009820F0005000F10050009006E03E
:103D00002DB9009820F0804000F18040009000988C
:103D1000E168C8603220FCF783FE3046F8BD0146FA
:103D2000C868406900F0010070470000400D0300C2
:103D30000000044000B502461046FFF7F0FF0128DE
:103D400001D0012000BD0020FCE700B5024610466E
:103D5000FFF7E5FF012800D100BD0020FCE7014688
:103D60000020CA685069CA689269104070470146CD
:103D7000C8684068704708B5026912680092009AE6
:103D800061F301020092009B0269136008BD38B51F
:103D90000446002500200090E16888616FF08040B3
:103DA000E16848612046FFF7A9FDE07820B9009856
:103DB00020F0100010300090009820F4006000F512
:103DC00000600090009820F4805000F58050009032
:103DD000009820F4005000F500500090009820F466
:103DE000802000F580200090009820F4002000F54D
:103DF00000200090009820F0080008300090009803
:103E000020F4801000F580100090009820F400103D
:103E100000F500100090E06880690099884308432D
:103E2000E1688861284638BD70B588B00446002630
:103E30000020079006900590049003900021D4F88C
:103E40000C010160206900680690069820F4C050BB
:103E50000690069920690160E07A01283FD103218C
:103E60002046FFF788FF8020E1684862059880B20D
:103E700000F50010059005986FF30F008030059055
:103E80000598E1688862059800EB1041049861F399
:103E90000F000490049880B200F50000049004988C
:103EA000E168C1F80401049800EB104161F30F00D0
:103EB0000490049880B200F5001004900499E06822
:103EC000C0F80811049800EB104161F30F00049052
:103ED000049880B204900499E068C0F80C11102195
:103EE0002046FFF7AAFE2046FFF7CFFE00212069FB
:103EF000016120694161491E2069816100212069B9
:103F0000C16100252CE004F1180050F8250000687C
:103F100007900798C00F70B100200790079820F015
:103F2000804000F180400790079820F0006000F189
:103F30000060079001E00020079004F1180050F89D
:103F4000250007990160002104F1180050F82500B0
:103F50000161FF2104F1180050F8250081606D1CFB
:103F60006078A842CFD800252CE004F1540050F826
:103F70002500006801900198C00F70B100200190E9
:103F8000019820F0804000F180400190019820F0DD
:103F9000006000F10060019001E00020019004F158
:103FA000540050F8250001990160002104F15400EB
:103FB00050F825000161FF2104F1540050F825005C
:103FC00081606D1C6078A842CFD8002003900398D0
:103FD00020F4807000F580700390206900690399D7
:103FE0008843084321690861E07801281DD1002039
:103FF0000290029820F00100401C0290029820F0EC
:104000000200801C02904021029861F38A00029015
:10401000029820F4803000F580300290029861F31D
:10402000594002900299206901632046FFF7AFFED4
:10403000304608B070BD08B5014600200A69926894
:104040000092009AC2F3410232B1012A06D0022A3C
:1040500007D0032A07D102E0032006E000BF0220B8
:1040600003E0012001E0022000BF00BF08BD0EB543
:1040700001460020002200920A69926802928A6931
:1040800012680192029AC2F3410232B1012A05D0AC
:10409000022A09D0032A0DD101E000BF00BF019A16
:1040A0006FF30A0201920AE0019A6FF30A02D21C2E
:1040B000019204E0019A6FF30A02019200BF00BF6F
:1040C000019B8A691360009A22F4807202F5807263
:1040D00000920A695268009B9A431A430B695A601E
:1040E0000EBD3CB5024600200024019400944C789B
:1040F000012C0CD10D7802F1180454F825300D78FC
:104100000124AC40009D64F30F0500950BE00D7891
:1041100002F1540454F825300D780124AC40009D80
:1041200064F31F4500951C680194019CC4F3C034DE
:10413000E4B90D89019C65F30A040194CD78019CD2
:1041400065F3934401948D79019C65F3995401942E
:10415000019C24F0805404F180540194019C24F4C7
:10416000004404F500440194019C1C601469E46956
:10417000009D2C431569EC613CBD3CB50246002016
:104180000024019400944C78012C0CD10D7802F19C
:10419000180454F825300D780124AC40009D64F3D8
:1041A0000F0500950BE00D7802F1540454F825300A
:1041B0000D780124AC40009D64F31F450095019CDF
:1041C00024F400440194019C1C601469E469009D7E
:1041D000AC431569EC613CBDFEB505460C460026B6
:1041E0000027002002900190607801287ED121787C
:1041F00005F1180050F8210000680290217805F1BF
:10420000180050F8210000690190606948B90198D0
:104210006FF3120001900121019861F3DC400190DD
:1042200017E06169019861F3120001906069401E16
:10423000A1680844B0FBF1F1019861F3DC40019002
:10424000E078012805D1019820F0C04000F100502D
:104250000190227805F1180050F8220001990161BF
:10426000E878012807D1227805F1180050F82200DB
:10427000216941610DE0E07801280AD0606940B110
:104280002178012000FA01F72869406B3843296939
:104290004863E078012813D128698068009000986D
:1042A000C0F3002030B9029820F0005000F1005017
:1042B000029005E0029820F0805000F180500290BA
:1042C000029820F0806000F180600290029820F057
:1042D000004000F100400290227805F1180050F8EB
:1042E000220002990160E078012800E008E070D126
:1042F000A08A83B222782846E168FFF74FFB68E086
:10430000217805F1540050F82100006802902178CE
:1043100005F1540050F8210000690190606950B91E
:10432000A168019861F3120001900121019861F3E5
:10433000DC40019017E0A068401E61690844A16854
:10434000B0FBF1F1019861F3DC4001900198C0F3FA
:10435000C940A1684843019960F312010191019895
:10436000C0F312006061227805F1540050F8220079
:1043700001990161E878012806D1227805F15400FD
:1043800050F8220021694161E07801280ED160795E
:1043900030B1029820F0005000F10050029005E08A
:1043A000029820F0805000F180500290029820F096
:1043B000806000F180600290029820F0004000F1DF
:1043C00000400290227805F1540050F82200029932
:1043D00001603046FEBDFCB50246002000240025E9
:1043E000019500954D78012D52D193691D68019575
:1043F0001D6900954D6955B9009D25F07F05009513
:10440000009D25F4002505F50025009516E08E6831
:104410004D69B54207D98D684D610E7A009D66F3EE
:104420000605009504E00E7D009D66F306050095E7
:10443000009D25F4002505F500250095009D1D61D2
:10444000D578012D06D10F7802F1180555F82750BF
:104450000E696E61019D25F0806505F1806501950D
:10446000019D25F0004505F100450195019D1D6068
:10447000D578002D59D14D69002D56D00E780125E3
:10448000B5402C4315696D6B2543166975634CE087
:104490000E7802F1540555F826502D6801950E78D6
:1044A00002F1540555F826502D6900954D695DB906
:1044B0000E7A009D66F306050095009D25F4002503
:1044C00005F5002500950CE08D684D610E7A009D84
:1044D00066F306050095009D25F4002505F50025E9
:1044E00000950F7802F1540555F82750009E2E6173
:1044F000D578012D06D10F7802F1540555F82750D3
:104500000E696E61019D25F0806505F1806501955C
:10451000019D25F0004505F1004501950F7802F158
:10452000540555F82750019E2E60FCBD38B5034652
:104530000A460020002400945478012C18D11578E4
:1045400003F1180454F825100C680094009CE40F43
:104550002CB1009C24F0804404F180440094009C21
:1045600024F4001404F500140094009C0C600EE088
:10457000157803F1540454F825100C680094009C3D
:1045800024F4001404F500140094009C0C6038BD61
:1045900038B503460020002400944C78012C05D146
:1045A0000D7803F1180454F8252004E00D7803F188
:1045B000540454F8252014680094009C24F400143A
:1045C0000094CC78032C02D0CC78022C05D1009C2E
:1045D00024F0805404F180540094009C146038BD91
:1045E0000146086982690869C0690240100C704779
:1045F000024602F1540353F82130986813695B694D
:10460000184070470146086982690869C06902401C
:1046100090B270470CB500210191019921F0C04181
:1046200001F1C0410191019921F4002101F500211E
:104630000191019921F07F0118310191019A416D99
:104640000A61C178012915D10021009100F2CC51F5
:10465000426D5161416D09680091009921F000415E
:1046600001F1004100914FF080210091009A416DCD
:104670000A6000BF0CBD3EB504464FF48C70005973
:1046800070B3206980680190019800F0010038B390
:10469000A07A78B1D4F80C0100680090009820F05E
:1046A00002000090009820F0010000900099D4F8DA
:1046B0000C01016000200290029820F00100401CD3
:1046C00002902069406802990843216948600520EA
:1046D000FCF7A6F92069406802998843216948607F
:1046E0003EBD0CB5817AB9B1016989680191019922
:1046F00001F0010179B1D0F80C110968009100991D
:1047000021F002010091009921F001010091009A2D
:10471000D0F80C110A6000BF0CBD70B50446012131
:104720004FF48970015500250BE0FF2104F11800BA
:1047300050F82500816004F1540050F82500816094
:104740006D1C6078A842F0D80021206901612069C1
:1047500041612069C161491E206981612046FFF7DE
:1047600094FA10212046FFF768FA70BD38B5034669
:104770000020002400944C78012C14D10D7803F112
:10478000180454F8252014680094009CC4F3405485
:104790000CB110201EE0009CC4F340440CB120205A
:1047A00018E0302016E00D7803F1540454F8252069
:1047B00014680094009CC4F3405414B14FF480502A
:1047C00008E0009CC4F3404414B14FF4005001E0F1
:1047D0004FF4405038BDF8B507460D46144600204A
:1047E0000090687801283CD1297807F1180050F82A
:1047F000216030680090102C04D129463846FFF71C
:1048000095FEF8BD202C06D1009820F0006000F144
:104810000060009068E0302C1DD10098C0F340503B
:1048200030B10020687129463846FFF7B1FEE8E74D
:10483000009820F0806000F180600090009820F4E3
:10484000004000F500400090009820F0004000F18A
:104850000040009048E0ECBB009820F4004000903D
:1048600042E0297807F1540050F821603068009048
:10487000B4F5805F06D1009820F4001000F5001018
:10488000009031E0B4F5005F06D1009820F00060A0
:1048900000F10060009027E0B4F5405F1FD1009860
:1048A000C0F3405030B10020687129463846FFF708
:1048B0006FFEA6E7009820F0806000F18060009015
:1048C000009820F4004000F500400090009820F08F
:1048D000004000E008E000F10040009004E01CB956
:1048E000009820F4004000900098306000BF88E7F6
:1048F0002DE9F04106460F4639463046FFF782F86B
:1049000001214FF4897081550021801C81550025BB
:1049100011E005EB850106F58E7000EBC104012066
:1049200060702570E5800020E0704020A0600020CD
:10493000E06060616D1C7078A842EAD8002510E044
:1049400005EB850106F55D7000EBC1040020607089
:104950002570E580E0704020A0600020E06060618C
:104960006D1C7078A842EBD83046FFF755F93046F9
:10497000FFF7AEF800213046FFF7AAF93046FFF7FF
:1049800053FA3046FFF737F9BDE8F0812DE9F041E1
:1049900006460D4690461F4605F08000802808D147
:1049A00005F07F0000EB800106F58E7000EBC1047E
:1049B00007E005F07F0000EB800106F55D7000EB7D
:1049C000C10405F07F00207005F08000C009607010
:1049D000C4F80880E770607808B12078E080022F82
:1049E00001D10020207121463046FFF77AFB0020DC
:1049F000BDE8F08170B506460C4604F080008028C2
:104A000008D104F07F0000EB800106F58E7000EB0A
:104A1000C10507E004F07F0000EB800106F55D7042
:104A200000EBC10504F07F00287004F08000C0098D
:104A3000687029463046FFF7A0FB002070BD2DE9C5
:104A4000F04105460E461746984606F07F0000EBFB
:104A5000800105F55D7000EBC104E760C4F81480C7
:104A60000020A061607006F07F002070E8780128C7
:104A700000D12761207820B921462846FFF7ABFCFA
:104A800003E021462846FFF7A7FB0020BDE8F081A0
:104A90002DE9F04107460D461646984605F07F0081
:104AA00000EB800107F58E7000EBC10401206070FF
:104AB00005F07F002070E66026610020A061C4F848
:104AC0001480207820B921463846FFF784FC03E0A3
:104AD00021463846FFF780FB0020BDE8F08170B525
:104AE00006460C4604F08000802808D104F07F00C0
:104AF00000EB800106F58E7000EBC10505E004EBCC
:104B0000840106F55D7000EBC1050120A87004F07A
:104B10007F002870C4F3C010687029463046FFF744
:104B200005FD002070BD70B506460C4604F08000FF
:104B3000802808D104F07F0000EB800106F58E701C
:104B400000EBC10505E004EB840106F55D7000EBA8
:104B5000C1050020A87004F07F002870C4F3C010C5
:104B6000687029463046FFF713FD002070BD70B510
:104B700005460C4604F08000802805D104F07F0132
:104B80002846FFF75AF802E02846FFF77EF8002093
:104B900070BD08B500220092009A61F30A120092DB
:104BA00002691268009B1A4303691A6008BD38B590
:104BB0000446206940680090009820F002000090B0
:104BC0000099206941600320FBF72AFF38BD38B502
:104BD0000446206940680090009820F00200801C84
:104BE00000900099206941600320FBF719FF38BD50
:104BF0002DE9F04105460C46002704F0800080288E
:104C000008D104F07F0000EB800105F58E7000EB09
:104C1000C10605E004EB840105F55D7000EBC106FB
:104C200031462846FFF7A2FD07463846BDE8F08129
:104C30002DE9F04105460C46174604F08000802817
:104C400008D104F07F0000EB800105F58E7000EBC9
:104C5000C10605E004EB840105F55D7000EBC106BB
:104C60003A4631462846FFF7B6FDBDE8F081000020
:104C700038B5044600200090FE480068016A2046CE
:104C80008847009820F4001000F50010009000986C
:104C9000E1684861012038BD38B504460020009025
:104CA000F4480068C16920468847009820F48010C5
:104CB00000F5801000900098E1684861012038BD3F
:104CC00030B587B00546EC4C2846FFF7D0F901A86F
:104CD000FDF75DF9029CE868C0680590059820F42E
:104CE000705005900598E968C8602846FFF7A3F959
:104CF00003280BD10020A8704FF40070A8800598FD
:104D000020F4705000F5105005907EE00120A8704E
:104D10004020A880D948844209D3D948844206D289
:104D2000059820F4705000F5605005906DE0D4486F
:104D3000844209D3D348844206D2059820F47050A7
:104D400000F55050059060E0CE48844209D3CE482B
:104D5000844206D2059820F4705000F5405005902A
:104D600053E0C948844209D3C848844206D2059812
:104D700020F4705000F53050059046E0C34884425E
:104D800009D3C348844206D2059820F4705000F538
:104D90002050059039E0BE48844209D3BD48844282
:104DA00006D2059820F4705000F5105005902CE0C4
:104DB000B848844209D3B848844206D2059820F402
:104DC000705000F5005005901FE0B348844209D3AD
:104DD000B248844206D2059820F4705000F5E050A5
:104DE000059012E0AD48844209D3AD48844206D212
:104DF000059820F4705000F5C050059005E0059826
:104E000020F4705000F5A05005900598E968C8603E
:104E100000200690069820F4005000F500500690FF
:104E20000698E9684861012007B030BD30B587B009
:104E30000446002002900690059004900390019093
:104E4000029820F00100401C0290206940680299FD
:104E500088432169486000212046FEF7EEFE0025C8
:104E60000BE0FF2104F1180050F82500816004F1E7
:104E7000540050F8250081606D1C6078A842F0D87D
:104E80004FF0FF312069816106986FF30F00401CDD
:104E90000690069880B200F5803006900699206949
:104EA000C161059820F0080008300590059820F0B1
:104EB0000100401C0590059820F00200801C059020
:104EC000059920694161049820F00100401C04907C
:104ED000049820F0080008300490049820F00200A4
:104EE000801C049004992069016120690068039086
:104EF000039820F4FE600390039920690160204626
:104F0000FFF788FB00200190019820F4805000F505
:104F1000805001900198E168486156480068016935
:104F200020468847012007B030BD7CB504460020EC
:104F30000190019820F0100010300190E068806925
:104F400001998843E1688861E068006A00900098F0
:104F500000F00F0000EB800104F55D7000EBC1056F
:104F60000098C0F3434007282DD2DFE800F02C045E
:104F7000051D1E2C1F0027E00098C0F30A1090B1F9
:104F80000098C0F30A122046E968FEF727FDE8689A
:104F90000099C1F30A110844E860A8690099C1F3B7
:104FA0000A110844A8610FE00EE00DE0082204F2A7
:104FB000CC512046FEF712FDA8690099C1F30A11F1
:104FC0000844A86100E000BF00BFE0688069019963
:104FD0000843E168886101207CBD38B50446254856
:104FE0000068C1682046884700200090009820F0A3
:104FF0000800083000900098E1684861012038BD41
:105000001FB50446002000904FF48970005D0090A9
:1050100018480068416920468847206980680190E7
:1050200000200390039820F4006000F500600390D6
:105030000398E1684861A07AA0B3019800F00100EC
:1050400080B340F21510005D01283FD19DF80000AB
:1050500003283BD100200290029820F00100401C60
:105060000290D4F80C01006802990843D4F80C119E
:10507000086018E094010020007A030AC0E1E4000F
:105080000024F400E0EC040100C31801002D3101FC
:1050900040A44C0100366E0140E2950180C3C90175
:1050A00060600B0212E0029820F00200801C029067
:1050B000D4F80C01006802990843D4F80C11086078
:1050C000FE48006840F00600FC490860012004B07A
:1050D00010BD3EB50446A07A78B1D4F80C01006842
:1050E0000090009820F002000090009820F001004D
:1050F00000900099D4F80C01016000200190019803
:1051000020F00100401C019020694068019988430B
:1051100021694860EA480068816920468847002084
:105120000290029820F0004000F1004002900298A6
:10513000E168486101203EBD2DE9F84306460F466F
:1051400000200090002507EB870106F58E7000EB2C
:10515000C104D4E90501451AA068A84200D2A56897
:10516000E81C4FEA900806F1180050F82700806903
:10517000009029E0D4E90501451AA068A84200D2B0
:10518000A568E81C4FEA9008ABB2FAB23046E16875
:10519000FEF704FCE0682844E060A0692844A061B0
:1051A00006F1180050F8270080690090D4E9050145
:1051B000884209D12178012000FA01F93069406B59
:1051C00020EA090031694863009880B2404506D959
:1051D000D4E90510884202D260690028CAD10120B2
:1051E000BDE8F88330B5024615692B6915696C6B0B
:1051F00024FA01F505F0010543EAC51302F118058B
:1052000055F82150AD6805EA030030BDF8B50546F4
:105210000024002000902846FFF7F4F9064681E0BC
:1052200006F0010000287BD0E1B22846FFF7DAFF44
:105230000090009800F0010030B3012000FA04F75C
:105240002869406BB84329694863002000900098A2
:1052500020F00100401C009005F1180050F82400D7
:1052600000998160E1B296480068426828469047FC
:10527000E878012808D13CB940F21110405D0428BB
:1052800002D12846FFF7C6F90098C0F3C00060B10C
:1052900000200090009820F008000830009005F1F0
:1052A000180050F82400009981600098C0F30010A5
:1052B00060B100200090009820F0100010300090A5
:1052C00005F1180050F82400009981600098C0F39F
:1052D000801060B100200090009820F04000403025
:1052E000009005F1180050F82400009981600098A2
:1052F000C0F3400060B100200090009820F0020050
:10530000801C009005F1180050F82400009981607D
:105310000098C0F3C01018B121462846FFF70CFFD3
:10532000641C7608002E7FF47BAF0120F8BD7CB5AD
:1053300004460025002001902046FFF751F906465B
:105340006FE006F00100002869D0E9B22046FFF7BF
:105350004FF90190019800F00100C8B300200190BE
:10536000019820F00100401C019004F1540050F815
:10537000250001998160E078012817D104F15400DB
:1053800050F825000069009005EB850104F55D707B
:1053900000EBC10080680099C1F31201411A05EBCE
:1053A000850204F55D7000EBC2008161E9B24448FA
:1053B0000068026820469047E078012808D13DB98E
:1053C00040F21110005D052802D12046FFF722F9B6
:1053D0000198C0F3400060B100200190019820F0D6
:1053E0000200801C019004F1540050F8250001993E
:1053F00081600198C0F3C00088B1314800688168BD
:105400002046884700200190019820F008000830CD
:10541000019004F1540050F82500019981606D1C41
:105420007608002E8DD101207CBD7CB50546002478
:105430002846FEF77FFC00286BD02846FEF78FFC3D
:105440000190019808B900207CBD0198C0F3C040CC
:1054500018B12846FFF76BFF04430198C0F3804062
:1054600018B12846FFF7D2FE04430198C0F340006C
:1054700050B100200090009820F00200801C0090A5
:105480000098E968486100BF0198C00F18B128462C
:10549000FFF71FFE04430198C0F3C02018B128464F
:1054A000FFF7AEFD04430198C0F3C00018B12846D1
:1054B000FFF793FD0443019804E0000010ED00E0C5
:1054C00094010020C0F3001018B12846FFF72DFD0D
:1054D00004430198C0F3003018B12846FFF7A6FC3A
:1054E00004430198C0F3403018B12846FFF7E8FBA9
:1054F00004430198C0F3005018B12846FFF7CCFBD5
:1055000004430198C0F3405018B12846FFF7B0FBA0
:105510000443204698E770477CB51D4616460C00AC
:10552000009001D02044401E074B7B442A46694628
:105530000190304600F0F7F805461CB1002069469E
:1055400000F004F928467CBD2902000010B5203A7D
:10555000C0F00B80B1E81850203AA0E81850B1E82C
:105560001850A0E81850BFF4F5AF5FEA027C24BFE2
:10557000B1E81850A0E8185044BF18C918C0BDE8D9
:1055800010405FEA827C24BF51F8043B40F8043BA2
:1055900008BF7047D20728BF31F8023B48BF11F857
:1055A000012B28BF20F8023B48BF00F8012B7047B1
:1055B000704770477047704770B50446856900684A
:1055C000C10601D5302600E02026C00707D070BDF7
:1055D000D4E9012130469047206A401C20626D1EAC
:1055E000F6D570BD70B5044685690078C00707D14F
:1055F00070BDD4E9012120209047206A401C206220
:105600006D1EF6D570BD09684A0501D540B27047D8
:10561000C905FCD500B2704709684A0501D5C0B27A
:105620007047C905FCD580B2704770B50C46054679
:10563000012A05D02878800600D5EA69002302E017
:10564000012305E05B1C934202D2E05C0028F9D103
:10565000A869E618C01AA861286A18442862284672
:10566000FFF7AAFF04E0D5E9012114F8010B9047E8
:10567000B442F8D32846FFF7B5FF70BD2DE9F041DD
:105680000646002410687529314616A510D0FFF78C
:10569000BAFF002802DA404213A507E031688A0702
:1056A00001D512A502E0490704D511A5012401E0A6
:1056B000FFF7B2FF00210A2206F1240709E0B0FB40
:1056C000F2FCB0FBF2F302FB1C00303078541846B9
:1056D000491C0028F3D123462A463046BDE8F04154
:1056E00000F069BA000000002D0000002B0000004F
:1056F0002000000011680268006A530501D5087097
:105700000AE0D30501D5088006E0130603D5C217C9
:10571000C1E9000200E008600120704701694A1CED
:1057200002610878704700B58FB0CDE901310021E2
:10573000059105497944CDE903101146684600F00A
:1057400031F90FB000BD0000E5FFFFFF0A6802F865
:10575000010B0A607047D1E900239A4202D2531C20
:105760000B601070704700002DE9FF5F15468A46F8
:105770000446DFF8AC80F8440027D8E900103E4624
:10578000CDE9001010E03AF816106A4602A800F0C1
:1057900025FE411C07D02178890603D5E269391816
:1057A00091420DD80744761C2078800602D5E06926
:1057B000B84205DDAE42E6DB3AF816000028E2D139
:1057C000A069C01BA0612046FFF7F6FED8E90010D3
:1057D000CDE90010002017E03AF818106A4602A838
:1057E00000F0FCFDB0F1FF3F81460BD000250DF12C
:1057F000080B05E0D4E901211BF8050090476D1C5A
:105800004D45F7D308F10100B0428046E4DB206A41
:10581000384420622046FFF7E5FEBDE8FF9F000008
:10582000621D00002DE9F0418046D21D22F00702E2
:105830000025D2E90002F52915A614D0011E72F147
:10584000000106DA0023D0EB030063EB020211A68D
:1058500008E0D8F800108B0701D50FA602E0490731
:1058600001D50EA601251146002408F1240704E005
:1058700000F05CF930323A55641C50EA0102F7D16D
:105880002B46324621464046BDE8F04100F093B930
:10589000000000002D0000002B0000002000000090
:1058A00030B4002100F1240408E002F00705D2081A
:1058B000303542EA4372DB086554491C52EA03055D
:1058C000F3D10468002310A2250707D5A40600D44D
:1058D00021B1C46901230DA2641EC46130BC00F073
:1058E0006AB910B5044621461068FFF795FE0246D6
:1058F0002046BDE810400023D2E7D21D22F0070168
:10590000D1E90023CCE700000000000030000000D7
:10591000F0B40D460188090502D5214C7C4402E013
:105920001F4C7C440E34002100F1240608E002F0F4
:105930000F071209E75D42EA03721B097754491CFD
:1059400052EA0307F3D102780023120704D5702D21
:1059500006D009B1022311342246F0BC00F02BB965
:1059600001231034F8E770B504460D46214610684F
:10597000FFF752FE024629462046BDE8704000234C
:10598000C6E7D21D22F00703D3E90023C0E703686E
:10599000126843F0200303600823C3610023B7E7C4
:1059A000C41B00002DE9F05F894604464FF0000A51
:1059B000DFF874B1FB44C0F820A02046E1688847B6
:1059C000002874D0252806D0D4E901219047206A08
:1059D000401C2062F1E700265F462046E1688847C8
:1059E0002028054607DB312D05D2781910F8200C48
:1059F00008B10643F1E7B00701D526F00406C4F864
:105A00001CA00027C4F818A02A2D09D0284601F0B0
:105A100017FA38B304EB8708303DC8F8185019E07E
:105A200059F8041B204604EB87029161E16888471E
:105A3000012F054618D1E069002820DA26F020065B
:105A40001DE0D8F8180000EB800005EB400030386E
:105A5000C8F818002046E1688847054601F0F0F9CB
:105A60000028EED1012F0AD02E2D08D12046E16862
:105A700088477F1C0546022F46F02006C4DBA0693C
:105A8000002803DA404246F00106A061F00701D089
:105A900026F010066C2D0BD0682D09D04C2D39D076
:105AA0006A2D35D0742D35D07A2D33D016E038E0FC
:105AB000E1682F4620468847B842054609D16C2F39
:105AC00026D04FF48060E1680643204688470546AB
:105AD00004E06C2F1AD04FF4807006430DB3A5F18B
