:020000040800F2
:10000000B8A301209D010008C9240008E11F0008D1
:10001000C524000893090008D74A00080000000022
:10002000000000000000000000000000352B000868
:100030008114000800000000C52600084D2C0008AF
:10004000B7010008B7010008B7010008B7010008B0
:10005000B7010008B7010008B7010008B7010008A0
:10006000B7010008B7010008B7010008B701000890
:10007000B7010008B7010008B7010008B701000880
:10008000B7010008B7010008B7010008B701000870
:10009000B7010008B7010008B7010008B701000860
:1000A000B7010008B7010008B7010008B701000850
:1000B000B7010008B92C0008B7010008B701000813
:1000C000B7010008B7010008B7010008B701000830
:1000D000B7010008752E0008B7010008B701000835
:1000E000B7010008B7010008B7010008B701000810
:1000F000B7010008B7010008B7010008B701000800
:10010000B7010008B7010008B7010008B7010008EF
:10011000B7010008B7010008B7010008B7010008DF
:10012000B7010008B7010008B7010008B7010008CF
:10013000B7010008B7010008B7010008B7010008BF
:10014000B7010008B7010008B7010008B52600088C
:10015000B7010008B7010008B7010008B70100089F
:10016000B7010008B7010008B7010008B70100088F
:10017000B7010008B7010008B7010008B70100087F
:10018000B7010008B7010008DFF80CD000F05AFAF8
:1001900000480047C5290108B8A301200648804748
:1001A00006480047FEE7FEE7FEE7FEE7FEE7FEE75C
:1001B000FEE7FEE7FEE7FEE7512C00088901000894
:1001C00040EA01039B0703D009E008C9121F08C0D9
:1001D000042AFAD203E011F8013B00F8013B521E59
:1001E000F9D27047D2B201E000F8012B491EFBD2D0
:1001F00070470022F6E710B513460A460446194632
:10020000FFF7F0FF204610BD421C10F8011B00292B
:10021000FBD1801A704710B5002200E0521C835CAD
:100220008C5CA34201D1002BF8D1D8B2E1B2401AC4
:1002300010BD034611F8012B00F8012B002AF9D15B
:100240001846704730B50B46014600202022012495
:1002500009E021FA02F59D4205D303FA02F5491B94
:1002600004FA02F52844151EA2F10102F1DC30BDAA
:100270002DE9F05F0546002092469B4688460646DB
:10028000814640241BE0284641464746224600F06E
:10029000FAF953465A46C01A914110D311461846EE
:1002A000224600F0E1F92D1A67EB01084F4622467D
:1002B0000120002100F0D8F917EB00094E41201E63
:1002C000A4F10104DFDC484631462A464346BDE836
:1002D000F09F2DE9FE4F804681EA0300C00F0C46D7
:1002E000009021F0004123F00045B8EB0200A94145
:1002F00005D24046214690461C460B46024623F056
:100300000040104347D0270DC7F30A00C3F30A513A
:100310000290401A019040286BDAC3F3130040F4B6
:10032000801B0098924620B10023D2EB030A63EBB6
:100330000B0B01985946C0F14002504600F094F969
:1003400006460D4650465946019A00F0ACF910EBAE
:1003500008006141002487EA115284EAE7731A43D6
:1003600040D0009A62B3019A012A4FEA075215DC85
:10037000001B61EB02014FF0004202EA0752CDE997
:100380000042001C41F5801132462B4600F0ACF9CA
:1003900003B0BDE8F08F40462146F9E7001B61EB52
:1003A0000201001C41F5801300185B412018A2F5E2
:1003B000001747EB030140EAD570B6196D4111E013
:1003C0006D084FEA360645EAC0754FEA0752001B32
:1003D00061EB0201001C41F5801149084FEA300031
:1003E0000019514132462B4603B0BDE8F04F00F0F2
:1003F0006CB90098012240000023D0EB020263EBAD
:10040000E073009821464FEAE074B8EB000061EB1E
:100410000401E9E783F000435BE781F0004158E71E
:100420002DE9FE4F81EA030404F0004421F000416D
:1004300000944FF0000B23F0004350EA01045ED01B
:1004400052EA03045BD0C3F30A54C1F30A552C44A7
:10045000A4F2F3340194A0FB0254C1F3130141F45C
:100460008011C3F3130343F4801301FB024400FB28
:10047000034E840A970A44EA815447EA8357A4FB4F
:10048000076802958D0A05FB07854FEA932C04FB4C
:100490000C542705029D4FEA065847EA1637B5EB7C
:1004A00008056EEB070C870E920E47EA811742EAA9
:1004B0008312A7FB0201B6EB0B0164EB00042B0DCA
:1004C00043EA0C335E1844EB1C50DA465146E7FB16
:1004D0000201C5F313044FEA0B3343EA14534FEA06
:1004E0000432019C43EA0603A4F10C040294009C2C
:1004F000CDE900B400F0F8F803B0BDE8F08F0020BB
:100500000146F9E72DE9F04D81EA030404F0004BC0
:1005100021F0004514464FF0000A23F0004150EA54
:10052000050220D054EA01021DD0C5F30A57024645
:10053000C5F31303C1F31300C1F30A5640F4801549
:1005400043F48013A7EB0608101BD64608F2FD38CB
:1005500073EB050002D308F1010801E092185B413A
:10056000B8F1000F03DA00200146BDE8F08D00204D
:100570004FF48011064684460EE0171B73EB050707
:1005800005D3121B63EB050306434CEA010C490833
:100590004FEA300092185B4150EA0107EDD152EA70
:1005A000030012D082EA040083EA0501084305D063
:1005B000101BAB4106D20122002306E000224FF0BF
:1005C000004302E06FF0010253101AEB06004CEBFF
:1005D000085110EB0A0041EB0B01BDE8F04D00F0B3
:1005E00074B8C1F30A52C1F3130140F2FF3341F46E
:1005F00080119A4202DA00200146704740F23343EC
:100600009A42A2F2334202DC524200F03CB800F0BF
:100610002BB8000030B5041E71F1000404DB4FF06C
:100620000044404264EB0101141E73F1000405DB39
:100630001C464FF00043524263EB0403994208BF4B
:10064000904230BD064C074D06E0E06840F00103E3
:1006500094E8070098471034AC42F6D3FFF798FDB2
:10066000C4CC0108E4CC0108202A04DB203A00FABB
:1006700002F1002070479140C2F1200320FA03F3F9
:10068000194390407047202A04DB203A21FA02F0F7
:100690000021704721FA02F3D040C2F120029140BC
:1006A000084319467047202A06DBCB17203A41FA47
:1006B00002F043EAE07306E041FA02F3D040C2F1EF
:1006C0002002914008431946704710B5141E73F17B
:1006D000000408DA401C41F1000192185B411A4302
:1006E00001D120F0010010BD2DE9F04D92469B464E
:1006F00011B1B1FA81F202E0B0FA80F220329046F4
:10070000FFF7B2FF04460F4640EA0A0041EA0B0138
:1007100053465A46084313D0114653EA010019D0F4
:10072000C8F140025046FFF7AEFF05460E46504660
:1007300059464246FFF798FF084305D0012004E0E0
:1007400020463946BDE8F08D0020054346EAE076B4
:100750002C4337430A986305E40AA0EB0800002203
:10076000FD0A44EA47540A3002D500200146E9E771
:10077000010510196941DDE9084500196941BDE825
:10078000F04DA2E770B58C1810F8015B15F0070367
:1007900001D110F8013B2A1106D110F8012B03E01A
:1007A00010F8016B01F8016B5B1EF9D12B0705D422
:1007B0000023521E0DD401F8013BFAE710F8013B6B
:1007C000CB1A921C03E013F8015B01F8015B521E87
:1007D000F9D5A142D8D3002070BD21B1826842F082
:1007E0000102826003E0826822F0010282607047A9
:1007F0000021084A1168084A1140D0E900231A4331
:1008000083681A43C3681A431143044AC2F80413A5
:100810007047000004230140E030FCFF002001404D
:1008200021B1826842F48072826003E0826822F41F
:1008300080728260704721B1826842F400728260E7
:1008400003E0826822F40072826070470146C86C3F
:1008500080B270470246002013680B400BB10120A4
:1008600000E000207047000030B502460020002361
:100870005068104C20400D790C6844EA0524204350
:10088000506090680C4C2040D1E903542C438D6893
:100890002C434D7944EA450420439060D06A20F40B
:1008A00070000C7D641EE4B2234340EA0350D06222
:1008B00030BD0000FFFEFFFCFDF7FFC0F0B50446B1
:1008C0000D4600200021092D11DDE068A5F10A0682
:1008D00006EB4607072606FA07F18843A5F10A0644
:1008E00006EB460603FA06F10843E0600CE02069D7
:1008F00005EB4507072606FA07F1884305EB450691
:1009000003FA06F108432061072A0FDA606B561ECE
:1009100006EB86071F2606FA07F18843561E06EBEC
:10092000860605FA06F10843606322E00D2A0FDA15
:10093000206BD61F06EB86071F2606FA07F18843B1
:10094000D61F06EB860605FA06F10843206310E081
:10095000E06AA2F10D0606EB86071F2606FA07F1EC
:100960008843A2F10D0606EB860605FA06F1084358
:10097000E062F0BD816841F08041816070470021F4
:100980000160017141718160C160016101210175E6
:10099000704700BFFEE770B506460C4604F08000C5
:1009A000802808D104F07F0000EB800106F58E70EE
:1009B00000EBC10507E004F07F0000EB800106F5C5
:1009C0005D7000EBC10504F07F00287004F080002A
:1009D000C00968702946304603F035FD002070BD1F
:1009E00070B506460C4604F08000802808D104F05B
:1009F0007F0000EB800106F58E7000EBC10505E07D
:100A000004EB840106F55D7000EBC1050020A870C1
:100A100004F07F002870C4F3C01068702946304687
:100A200003F0E9FC002070BD2DE9F04106460D46BB
:100A300090461F4605F08000802808D105F07F0011
:100A400000EB800106F58E7000EBC10407E005F0B5
:100A50007F0000EB800106F55D7000EBC10405F03E
:100A60007F00207005F08000C0096070C4F8088025
:100A7000E770607808B12078E080022F01D1002073
:100A800020712146304603F06AFC0020BDE8F08169
:100A90002DE9F04105460E461746984606F07F00C0
:100AA00000EB800105F55D7000EBC104E760C4F860
:100AB00014800020A061607006F07F002070E8784C
:100AC000012800D12761207820B92146284603F06B
:100AD0006AFB03E02146284603F016FD0020BDE82E
:100AE000F08108B500220092009A61F30A12009288
:100AF00002691268009B1A4303691A6008BD70B549
:100B000006460C4604F08000802808D104F07F00DF
:100B100000EB800106F58E7000EBC10505E004EBEB
:100B2000840106F55D7000EBC1050120A87004F09A
:100B30007F002870C4F3C01068702946304603F067
:100B4000B1FC002070BD2DE9F04107460D46164668
:100B5000984605F07F0000EB800107F58E7000EBF2
:100B6000C1040120607005F07F002070E6602661FE
:100B70000020A061C4F81480207820B921463846AE
:100B800003F011FB03E02146384603F0BDFC0020D2
:100B9000BDE8F08130B587B00546594C284603F0D2
:100BA000C8FA01A801F0D0FD029CE868C068059071
:100BB000059820F4705005900598E968C8602846AB
:100BC00003F06AFE03280BD10020A8704FF40070D8
:100BD000A880059820F4705000F5105005907EE034
:100BE0000120A8704020A8804648844209D3464886
:100BF000844206D2059820F4705000F560500590AC
:100C00006DE04148844209D34048844206D20598A9
:100C100020F4705000F55050059060E03B4884424D
:100C200009D33B48844206D2059820F4705000F561
:100C30004050059053E03648844209D335488442F9
:100C400006D2059820F4705000F53050059046E02B
:100C50003048844209D33048844206D2059820F4B3
:100C6000705000F52050059039E02B48844209D39C
:100C70002A48844206D2059820F4705000F510509E
:100C800005902CE02548844209D32548844206D2A9
:100C9000059820F4705000F5005005901FE02048A2
:100CA000844209D31F48844206D2059820F470502C
:100CB00000F5E050059012E01A48844209D31A4822
:100CC000844206D2059820F4705000F5C05005907B
:100CD00005E0059820F4705000F5A05005900598A7
:100CE000E968C86000200690069820F4005000F5DE
:100CF000005006900698E9684861012007B030BDB1
:100D0000007A030AC0E1E4000024F400E0EC0401EE
:100D100000C31801002D310140A44C0100366E01C2
:100D200040E2950180C3C90160600B02F8B5054639
:100D3000002400200090284603F0EFFD064681E0E5
:100D400006F0010000287BD0E1B2284600F0F6FA58
:100D50000090009800F0010030B3012000FA04F781
:100D60002869406BB84329694863002000900098C7
:100D700020F00100401C009005F1180050F82400FC
:100D800000998160E1B23248006842682846904785
:100D9000E878012808D13CB940F21110405D0428E0
:100DA00002D1284603F0AAFA0098C0F3C00060B14F
:100DB00000200090009820F008000830009005F115
:100DC000180050F82400009981600098C0F30010CA
:100DD00060B100200090009820F0100010300090CA
:100DE00005F1180050F82400009981600098C0F3C4
:100DF000801060B100200090009820F0400040304A
:100E0000009005F1180050F82400009981600098C6
:100E1000C0F3400060B100200090009820F0020074
:100E2000801C009005F1180050F8240000998160A2
:100E30000098C0F3C01018B12146284600F092FA7D
:100E4000641C7608002E7FF47BAF0120F8BD000003
:100E5000B80100207CB50446002500200190204602
:100E600003F063FD06466FE006F00100002869D03C
:100E7000E9B2204603F061FD0190019800F0010005
:100E8000C8B300200190019820F00100401C01909F
:100E900004F1540050F8250001998160E0780128A0
:100EA00017D104F1540050F825000069009005EBBB
:100EB000850104F55D7000EBC10080680099C1F305
:100EC0001201411A05EB850204F55D7000EBC200CA
:100ED0008161E9B21E480068026820469047E078C8
:100EE000012808D13DB940F21110005D052802D15A
:100EF000204603F003FA0198C0F3400060B10020DF
:100F00000190019820F00200801C019004F154002F
:100F100050F82500019981600198C0F3C00088B1A4
:100F20000B4800688168204688470020019001989E
:100F300020F008000830019004F1540050F825001A
:100F4000019981606D1C7608002E8DD101207CBD39
:100F5000B80100203EB50446A07A78B1D4F80C015F
:100F600000680090009820F002000090009820F0A7
:100F7000010000900099D4F80C010160002001905C
:100F8000019820F00100401C0190206940680199FF
:100F9000884321694860094800688169204688477C
:100FA00000200290029820F0004000F100400290E2
:100FB0000298E168486101203EBD0000B8010020B0
:100FC0007CB5044600200190019820F010001030FC
:100FD0000190E068806901998843E1688861E06870
:100FE000006A0090009800F00F0000EB800104F50B
:100FF0005D7000EBC1050098C0F3434007282DD277
:10100000DFE800F02C04051D1E2C1F0027E00098CF
:10101000C0F30A1090B10098C0F30A122046E968A4
:1010200003F095FCE8680099C1F30A110844E860F0
:10103000A8690099C1F30A110844A8610FE00EE005
:101040000DE0082204F2CC51204603F080FCA86990
:101050000099C1F30A110844A86100E000BF00BF75
:10106000E068806901990843E168886101207CBDDE
:1010700038B5044608480068C16820468847002003
:101080000090009820F00800083000900098E16877
:101090004861012038BD0000B80100201FB504469A
:1010A000002000904FF48970005D00902348006894
:1010B000416920468847206980680190002003909C
:1010C000039820F4006000F5006003900398E16845
:1010D0004861A07A70B3019800F0010050B340F26B
:1010E0001510005D012825D19DF80000032821D1AD
:1010F00000200290029820F00100401C0290D4F8D9
:101100000C01006802990843D4F80C110860029899
:1011100020F00200801C0290D4F80C0100680299B3
:101120000843D4F80C1108600548006840F0060038
:1011300003490860012004B010BD0000B801002080
:1011400010ED00E030B587B0044600200290069014
:101150000590049003900190029820F00100401C3B
:101160000290206940680299884321694860002103
:10117000204603F067FB00250BE0FF2104F1180077
:1011800050F82500816004F1540050F8250081607A
:101190006D1C6078A842F0D84FF0FF312069816162
:1011A00006986FF30F00401C0690069880B200F579
:1011B0008030069006992069C161059820F00800EA
:1011C00008300590059820F00100401C0590059816
:1011D00020F00200801C0590059920694161049867
:1011E00020F00100401C0490049820F00800083012
:1011F0000490049820F00200801C04900499206957
:101200000161206900680390039820F4FE60039058
:10121000039920690160204603F070F800200190D6
:10122000019820F4805000F5805001900198E16809
:10123000486104480068016920468847012007B0DA
:1012400030BD0000B80100202DE9F04106460F46F0
:101250003946304603F090FB01214FF489708155E7
:101260000021801C8155002511E005EB850106F564
:101270008E7000EBC104012060702570E5800020B5
:10128000E0704020A0600020E06060616D1C70781C
:10129000A842EAD8002510E005EB850106F55D704F
:1012A00000EBC104002060702570E580E0704020F4
:1012B000A0600020E06060616D1C7078A842EBD8EF
:1012C000304602F025FF304602F050FD0021304646
:1012D00003F0BAFB304602F0DCFD304603F07AFA48
:1012E000BDE8F08138B5044600200090074800684A
:1012F000C16920468847009820F4801000F58010CE
:1013000000900098E1684861012038BDB8010020D4
:1013100038B504460020009007480068016A20465E
:101320008847009820F4001000F500100090009805
:10133000E1684861012038BDB801002030B502469F
:1013400015692B6915696C6B24FA01F505F0010527
:1013500043EAC51302F1180555F82150AD6805EAB6
:10136000030030BD2DE9F84306460F4600200090EB
:10137000002507EB870106F58E7000EBC104D4E968
:101380000501451AA068A84200D2A568E81C4FEAEA
:10139000900806F1180050F827008069009029E0B5
:1013A000D4E90501451AA068A84200D2A568E81C46
:1013B0004FEA9008ABB2FAB23046E16803F06BFB3B
:1013C000E0682844E060A0692844A06106F11800A4
:1013D00050F8270080690090D4E90501884209D1BE
:1013E0002178012000FA01F93069406B20EA0900F8
:1013F00031694863009880B2404506D9D4E90510A8
:10140000884202D260690028CAD10120BDE8F88371
:1014100021B1026842F00102026003E0026822F09A
:10142000010202607047000010B500220268134BF1
:101430001A40CC680B6823434C6923438C692343CF
:10144000CC6923430C6A23434C6A23438C6A2343AD
:101450004C6B23438C6B23431A430260426922F096
:101460000702D1E90B3423431A4342610B694360FD
:101470004B6883608B68C36010BD00003F801CF028
:101480007047F8B504460D4616461F4644F208203C
:101490002B46324629460090204600F0B7FB48F222
:1014A00010406A1C93B291B2621C009090B2324616
:1014B00000F0ACFB44F208203B462246294600904F
:1014C000204600F0A3FB48F21040631C9AB26B1C4C
:1014D00099B2631C009098B23B4600F097FB4FF620
:1014E000FF703B46324639460090204600F08EFBA6
:1014F0004FF6FF703B46324629460090304600F0DA
:1015000085FBF8BDF8B506460F4614461D464FF656
:10151000FF703B46224639460090304600F076FB8D
:101520004FF6FF702B46324639460090304600F0A9
:101530006DFB48F210406A1E93B291B2721C00908B
:1015400090B2224600F062FB44F208202B4622466D
:1015500029460090304600F059FB48F21040631EC7
:101560009AB27B1C99B2631E009098B22B4600F091
:101570004DFB44F208202B46224639460090204677
:1015800000F044FBF8BDF0B50A460021002300241A
:1015900000BF3DE0012505FA01F3156805EA0304E3
:1015A0009C4234D105684F000326BE40B543056018
:1015B00015794E00B5400668354305601579012D53
:1015C00002D01579022D16D185684F000326BE4042
:1015D000B543856055794E00B540866835438560D2
:1015E000456801268E40B5434560456896798E4032
:1015F000B6B235434560C5684F000326BE40B543CB
:10160000C560D5794E00B540C6683543C560491CF4
:101610001029BFD3F0BDF0B5002300244D07ED0E17
:1016200002FA05F3CE1000F1200555F826504E07BA
:10163000F70E0F26BE40B543CF1000F1200646F846
:101640002750CE1000F1200555F8265045EA030436
:10165000CE1000F1200545F82640F0BD02460020DE
:1016600013690B400BB1012000E00020704741835B
:10167000704701837047000010B50446072301221C
:1016800021460848FFF71AF90648FFF773F900BF2B
:1016900002210448FFF7DEF80028F9D00148FFF7DF
:1016A000D5F810BD0020014070B50A480468001D3F
:1016B0000568001D0668344454B1082206492046D6
:1016C00000F090FC042204491031284600F08AFC06
:1016D00070BD0000107AFF1F160100202DE9F047B1
:1016E00006460F4690469A46002445464FEA480073
:1016F000C0F103094AE07A1991B2321990B2524608
:1017000000F062FD7A1991B2321B90B2524600F09D
:101710005BFD7A1B91B2321990B2524600F054FD33
:101720007A1B91B2321B90B2524600F04DFD3A192D
:1017300091B2721990B2524600F046FD3A1991B238
:10174000721B90B2524600F03FFD3A1B91B27219E3
:1017500090B2524600F038FD3A1B91B2721B90B223
:10176000524600F031FDB9F1000F05DA042000FB0C
:10177000049000F1060907E0601B042101FB0090C2
:1017800000F10A09681E85B2601C84B2AC42B2DB6B
:10179000AC4237D17A1991B2321990B2524600F068
:1017A00013FD7A1991B2321990B2524600F00CFD35
:1017B0007A1B91B2321990B2524600F005FD7A1BA5
:1017C00091B2321B90B2524600F0FEFC3A1991B22F
:1017D000721990B2524600F0F7FC3A1991B2721B9E
:1017E00090B2524600F0F0FC3A1B91B2721990B2DE
:1017F000524600F0E9FC3A1B91B2721B90B252467D
:1018000000F0E2FCBDE8F0872DE9F84F0746884676
:1018100093469A46DDF828900097B3E099F80000C7
:1018200080283DDA99F800600D2E05D1009F08F15F
:1018300010001FFA80F830E0202E03DDA6F1200012
:1018400086B200E00026002422E000251CE004EB24
:1018500006105049085C80212941084040B108EB3E
:10186000040291B27A1990B25A4600F0ADFC09E038
:10187000D34507D008EB040291B27A1990B25246D0
:1018800000F0A2FC681CC5B2082DE0DB601CC4B2ED
:10189000102CDADB07F1080087B209F1010971E0C9
:1018A000002668E006EB06103B4911F8100099F895
:1018B000001088425DD106EB0610374901EB40006D
:1018C000407899F80110884253D100244FE0002558
:1018D00020E006EB0610304901EB4000801C10F8B8
:1018E000141080202841014041B108EB040291B25C
:1018F0007A1990B25A4600F067FC09E0D34507D048
:1019000008EB040291B27A1990B2524600F05CFCE6
:10191000681CC5B2082DDCDB002524E006EB0610B0
:101920001D4901EB4000801C012101EB4401405C9A
:1019300080212941084048B108EB040291B27A198C
:10194000083290B25A4600F03FFC0AE0D34508D076
:1019500008EB040291B27A19083290B2524600F0B4
:1019600033FC681CC5B2082DD8DB601CC4B2102C37
:10197000ADDB701C86B2322E94DB09F1020907F14F
:10198000100087B299F8000000287FF447AFBDE847
:10199000F88F00006E360108E04301082DE9F05F82
:1019A0000646884693469A46DDF82890E2E099F884
:1019B0000000802835DA99F80070202F03DDA7F1A8
:1019C000200087B200E00027002522E000241CE070
:1019D00005EB07106B49095C80202041014041B1B3
:1019E00008EB050291B2321990B25A4600F0ECFBB6
:1019F00009E0D34507D008EB050291B2321990B245
:101A0000524600F0E1FB601CC4B2082CE0DB681C0D
:101A1000C5B2102DDADB09F1010906F1080086B222
:101A2000A8E000279EE007EB870000EB471056492F
:101A300011F8100099F8001088427CD107EB87005C
:101A400000EB4710504901EB4000407899F8011035
:101A50008842F2D1002580E0002423E007EB8700D4
:101A600000EB4710484901EB4000801C05EB4501A5
:101A7000405C80212141084040B108EB050291B251
:101A8000321990B25A4600F09FFB09E0D34507D0C7
:101A900008EB050291B2321990B2524600F094FB65
:101AA000601CC4B2082CD9DB002426E007EB8700B9
:101AB00000EB4710344901EB4000801C05EB450169
:101AC000491C405C80212141084048B108EB0502D7
:101AD00091B23219083290B25A4600F075FB0AE012
:101AE000D34508D008EB050291B23219083290B202
:101AF000524600F069FB601CC4B2082CD6DB0024FF
:101B000027E007EB870000EB47101F4901EB40007F
:101B1000801C05EB4501891C405C80212141084067
:101B200050B108EB050291B23219103290B25A4608
:101B300000F04AFB0BE013E0D34508D008EB0502A8
:101B400091B23219103290B2524600F03DFB601C47
:101B5000C4B2082CD5DB681CC5B2182DFFF67CAFCB
:101B6000781C87B2142FFFF65EAF09F1020906F167
:101B7000180086B299F8000000287FF418AFBDE87D
:101B8000F09F00006E360108024401082DE9F05F65
:101B90000746884692469946002531E000242BE00E
:101BA00019490A9801EBC01000EB850010F804B049
:101BB00000261DE08020304100EA0B0050B108EB08
:101BC000050291B207EBC402324490B2524600F0D3
:101BD000FBFA0BE0CA4509D008EB050291B207EB0E
:101BE000C402324490B24A4600F0EEFA701CC6B20B
:101BF000082EDFDB601CC4B2042CD1DB681CC5B22C
:101C0000202DCBDBBDE8F09F5F3C01082DE9FF4FA5
:101C100083B0804689464946404600F01CFC059842
:101C2000A0EB08050698A0EB0906002D02DB0120B9
:101C3000029003E04FF0FF3002906D42002E02DB75
:101C40000120019003E04FF0FF30019076424FEA0F
:101C5000450A4FEA460BB54219DDABEB05040027F8
:101C600012E049464046109A00F0AEFA002C05DB1F
:101C7000A4EB0A04019848441FFA80F95C440298D6
:101C800040441FFA80F87F1CAF42EADD18E0AAEB5F
:101C90000604002712E049464046109A00F094FAE4
:101CA000002C05DBA4EB0B04029840441FFA80F8DB
:101CB0005444019848441FFA80F97F1CB742EADD7A
:101CC00007B0BDE8F08F2DE9F84305460C461646EF
:101CD0001F46DDF820804EF67D700090A81982B274
:101CE000234621462846FFF791FF42F6651004F18E
:101CF000010CBC441FFA8CF305EB060CACF1010C93
:101D00001FFA8CF204F1010C1FFA8CF105EB060CA2
:101D1000ACF1010C00901FFA8CF0FFF777FF42F650
:101D200065100090E01983B2A81982B2E01981B25F
:101D30002846FFF76BFF4EF67D700090E01983B2E6
:101D40002A4621462846FFF761FF04F1010CBC44F6
:101D5000ACF1020C1FFA8CF305F1010CB444ACF1A8
:101D6000020C1FFA8CF204F1010C1FFA8CF105F140
:101D7000010C1FFA8CF0CDF80080FFF747FFBDE89B
:101D8000F8832DE9F84305460C4616461F46DDF854
:101D90002080B8F1000F39D14EF67D700090A8195F
:101DA00082B2234621462846FFF730FF42F66510EF
:101DB00004F1010CBC441FFA8CF305EB060CACF1EA
:101DC000010C1FFA8CF204F1010C1FFA8CF105EBE7
:101DD000060CACF1010C00901FFA8CF0FFF716FF17
:101DE00042F665100090E01983B2A81982B2E0199A
:101DF00081B22846FFF70AFF4EF67D700090E01989
:101E000083B22A4621462846FFF700FFB8F1010FAA
:101E100039D142F665100090A81982B223462146B6
:101E20002846FFF7F3FE4EF67D7004F1010CBC442A
:101E30001FFA8CF305EB060CACF1010C1FFA8CF2C7
:101E400004F1010C1FFA8CF105EB060CACF1010C4E
:101E500000901FFA8CF0FFF7D9FE4EF67D700090CF
:101E6000E01983B2A81982B2E01981B22846FFF7BF
:101E7000CDFE42F665100090E01983B22A46214655
:101E80002846FFF7C3FEB8F1020F39D14FF6FF70B5
:101E90000090A81982B2234621462846FFF7B6FED5
:101EA0004FF6FF7004F1010CBC441FFA8CF305EBF4
:101EB000060CACF1010C1FFA8CF204F1010C1FFAB4
:101EC0008CF105EB060CACF1010C00901FFA8CF0C4
:101ED000FFF79CFE4FF6FF700090E01983B2A8193F
:101EE00082B2E01981B22846FFF790FE4FF6FF70EC
:101EF0000090E01983B22A4621462846FFF786FE65
:101F0000BDE8F88370B506463048007800285BD1FC
:101F10002F480068B0F5006F02D100202C490860FE
:101F20002B4800682B490968884203D100202749C3
:101F3000087070BD2648006826490968884206D99D
:101F400023480068C0F500602349086006E0214886
:101F500000681F490968401A1F4908601E48006848
:101F6000402811D91A48008885B2402418480068D2
:101F70004030174908601848006840381649086022
:101F800001201249087018E01148008885B21248F3
:101F9000008884B20E4800680F49096808440C495B
:101FA000086000200C490860402C03D1022007493A
:101FB000087002E0012005490870084842192346CC
:101FC00081213046FEF7BFFD00BFB2E74800002088
:101FD000400000203C00002044000020270F00208B
:101FE00000BFFEE730B50B46002100BF16E00A2413
:101FF000B4EB107F05D9302404EB107403F81140C2
:1020000005E0412404EB10740A3C03F81140000180
:1020100000254C00641C1D554C1CE1B29142E6DBCE
:1020200030BD00001CB50121042000F04DFB0F2045
:10203000009000208DF8040001208DF8070069460B
:102040000148FFF7A0FA1CBD0008024070B5044625
:102050000D4629462046FFF701FB80B9142003F006
:10206000E9FA29462046FFF7F9FA50B900BF294698
:102070002046FFF7F3FA0028F9D0002070BD0120B8
:10208000FCE700BFFAE730B5014601F01F04C1F3D9
:102090004513CA0AE50205EB43151544A8B230BD45
:1020A0001CB50121082000F00FFB7E2000900120CC
:1020B0008DF8040000208DF8060003208DF805003F
:1020C00001208DF8070069460148FFF75CFA1CBD46
:1020D000000C02401CB50121022000F0F5FA4FF47B
:1020E000E040009001208DF8040000208DF80600EB
:1020F00001208DF8070000208DF805006946024890
:10210000FFF741FA1CBD00000004024030B5044650
:10211000EF2340F23F120021084600F081F9082029
:10212000104908801020891E0880002506E0201232
:1021300000F0E2FCE0B200F0DFFC6D1CB5F5963F6C
:10214000F5D3002506E0201200F0D6FCE0B200F046
:10215000D3FC6D1CB5F5963FF5D308200149891EC7
:10216000088030BD1A0C02402DE9F04306460F46A8
:1021700014461D46DDF81C80681E83B2601E82B2C4
:102180003946304600F04CF908200E4908801020EE
:10219000891E08804FF0000909E04FEA282000F06E
:1021A000ABFC08F0FF0000F0A7FC09F10109E81BF7
:1021B000A11B48434845F0D808200249891E0880E1
:1021C000BDE8F0831A0C024070B505460E46144671
:1021D0003146284600F03FF9204600F05BF970BD1B
:1021E00010B5FFF75DFF01208349088000F006F974
:1021F000112000F059F9002000F040F9CF2000F044
:1022000053F9002000F03AF9C12000F037F93020EE
:1022100000F034F9ED2000F047F9642000F02EF9C9
:10222000032000F02BF9122000F028F9812000F0A3
:1022300025F9E82000F038F9852000F01FF9112079
:1022400000F01CF9782000F019F9F62000F02CF9C4
:10225000012000F013F9302000F010F9002000F008
:102260000DF9CB2000F020F9392000F007F92C20DF
:1022700000F004F9002000F001F9342000F0FEF82D
:10228000052000F0FBF8F72000F00EF9202000F008
:10229000F5F8EA2000F008F9002000F0EFF800203F
:1022A00000F0ECF8C02000F0FFF8202000F0E6F885
:1022B000C12000F0F9F8112000F0E0F8C52000F08E
:1022C000F3F8312000F0DAF83C2000F0D7F8C7200E
:1022D00000F0EAF8A92000F0D1F83A2000F0E4F884
:1022E000552000F0CBF8362000F0DEF8E82000F0B2
:1022F000C5F8B12000F0D8F8002000F0BFF8182091
:1023000000F0BCF8B42000F0CFF8002000F0B6F8E0
:10231000002000F0B3F8F22000F0C6F8002000F032
:10232000ADF8262000F0C0F8012000F0A7F8E0206A
:1023300000F0BAF80F2000F0A1F8172000F09EF886
:10234000142000F09BF8092000F098F80C2000F011
:1023500095F8062000F092F8432000F08FF87520E1
:1023600000F08CF8362000F089F8082000F086F89C
:10237000132000F083F8052000F080F8102000F012
:102380007DF80B2000F07AF8082000F077F8E120C3
:1023900000F08AF8002000F071F81F2000F06EF8BD
:1023A000232000F06BF8032000F068F80E2000F006
:1023B00065F8042000F062F8392000F05FF825206D
:1023C00000F05CF84D2000F059F8062000F056F8B7
:1023D0000D2000F053F80B2000F050F8332000F0EF
:1023E0004DF8372000F04AF80F2000F047F8292078
:1023F00000F05AF810BD0000180C024010B5402043
:1024000006490880642003F015F940200349891E1D
:102410000880322003F00EF910BD00001A0C0240B3
:10242000F0B507460C4615461E462A2000F03CF83B
:10243000384600F02FF8284600F02CF82B2000F04A
:1024400033F8204600F026F8304600F023F82C2020
:1024500000F02AF8F0BD30B505460C462A2000F001
:1024600023F8284600F016F82B2000F01DF820462F
:1024700000F010F82C2000F017F830BD10B504461D
:10248000102003490880204600F036FB10BD0000F4
:10249000180C024010B504462012FFF7EFFFE0B21F
:1024A000FFF7ECFF10BD000010B5044608200449FA
:1024B000088010200880204600F01EFB10BD0000A0
:1024C0001A0C024000BFFEE7704700001FB510A1C4
:1024D00003C9CDE90201052202A9302000F0D6FA95
:1024E00005226946102000F09BFA002406E01DF842
:1024F0000400CC2800D003E0601CC4B2052CF6DB3D
:1025000000BF052C02D1012004B010BD0020FBE764
:10251000CCCCCCCCCC00000010B540201549488371
:102520002021312000F0D2FAFF21E22000F0CEFA83
:10253000052211492A2000F0A9FA0121212000F0EA
:10254000C5FA0121222000F0C1FA2821252000F03F
:10255000BDFA2021312000F0B9FA0F21262000F029
:10256000B5FA0F21202000F0B1FA4020014908837C
:1025700010BD0000001002405144010870B504462F
:1025800040200F494883072000F06AFA054605F00D
:10259000400070B120222146612000F041FAFF2165
:1025A000E22000F093FA2946272000F08FFA40201D
:1025B00070BD2946272000F089FA0020F8E70000C6
:1025C0000010024070B5054640201649488320227D
:1025D0002946A02000F05AFA4020124908838220A0
:1025E00003F044F803E0072000F03AFA0446022121
:1025F0000C48FFF733F80028F5D12146272000F0DA
:1026000065FA04F0100028B1FF21E12000F05EFA25
:10261000102070BD04F0200008B12020F9E7002050
:10262000F7E700000010024070B5002100230F22E0
:10263000C4781CB3174C246804F4E064C4F5E06467
:10264000C4F30721C1F10404E3B20A4144789C4079
:10265000E1B28478144021430C07210E0E4C05781A
:102660006155047804F01F050124AC4005786D1114
:10267000AD0005F1E025C5F8004109E0047804F05B
:102680001F050124AC40054D0678761145F826401B
:1026900070BD00000CED00E000E400E080E100E02F
:1026A00002490143024A1160704700000000FA0528
:1026B0000CED00E010B5024800F002FF10BD000074
:1026C000281800207047000029B1064A126802430A
:1026D000044B1A6004E0034A12688243014B1A60FB
:1026E000704700003038024029B1064A12680243A0
:1026F000044B1A6004E0034A12688243014B1A60DB
:10270000704700003438024029B1064A126802437B
:10271000044B1A6004E0034A12688243014B1A60BA
:10272000704700004038024029B1064A126802434F
:10273000044B1A6004E0034A12688243014B1A609A
:102740007047000044380240F0B500210022002408
:10275000022500260223324F3F6807F00C0121B109
:10276000042905D0082937D105E02E4F076036E04F
:102770002D4F076033E02A4F3F1F3F68C7F3805655
:10278000274F3F1F3F6807F03F036EB1264FB7FB4F
:10279000F3F7DFF88CC0ACF1040CDCF800C0CCF32C
:1027A000881C07FB0CF40CE01E4FB7FBF3F7DFF8B7
:1027B00070C0ACF1040CDCF800C0CCF3881C07FB43
:1027C0000CF4174F3F1F3F68C7F301477F1C7D0084
:1027D000B4FBF5F7076002E0124F076000BF00BFCF
:1027E0000F4F3F6807F0F0010909104F7A5C076846
:1027F000D74047600A4F3F6807F4E051890A0B4F02
:102800007A5C4768D7408760054F3F6807F46041AE
:10281000490B064F7A5C4768D740C760F0BD00009F
:10282000083802400024F40000127A0069010020F8
:102830001CB501210846FFF747FF10200090032038
:102840008DF8040000208DF8070069461948FEF74E
:102850009AFE01210846FFF737FF20200090032051
:102860008DF8040000208DF8070069461148FEF736
:102870008AFE01210846FFF727FF40200090032031
:102880008DF8040000208DF8070069460948FEF71E
:102890007AFE01210846FFF717FF802000900320F1
:1028A0008DF8040000208DF8070069460148FEF706
:1028B0006AFE1CBD0000024000B599B001218805E8
:1028C000FFF702FF3E480B903E480C9000200D9011
:1028D00004200E9000200F904FF480601090400074
:1028E000119080001290401113904002149000202B
:1028F0001590012016900020179018900A900AA9B0
:102900003148FEF791FD01212F48FEF781FD01219D
:102910000802FFF709FF002000904FF440300190BB
:10292000002002904FF4706003906846FDF760FF4E
:1029300004A8FEF724F80020049001208DF814006C
:102940008DF81500002006900790089004208DF85F
:10295000240004A91A484C38FDF786FF07230122FA
:10296000042117484C38FDF7A9FF0723022205214F
:1029700013484C38FDF7A2FF072303220621104815
:102980004C38FDF79BFF0723042219460C484C38AE
:10299000FDF794FF01210A484C38FDF74CFF012157
:1029A00007484C38FDF73CFF012105484C38FDF73E
:1029B00014FF03484C38FDF7DDFF19B000BD0000DF
:1029C0004C200140540100201064024010B5FFF774
:1029D0002FFFFFF771FF10BD70B50446002518E00A
:1029E00004F0800018B108200C49088302E0082098
:1029F0000A4948836006040E102008490883042110
:102A00000648FEF72BFE0443102004494883681C47
:102A1000C5B2082DE4DB204670BD00000010024066
:102A20002DE9F04107460D46164640200B494883E4
:102A3000202048833846FFF7CFFF8046002405E07A
:102A4000FF20FFF7C9FF2855601CC4B2B442F7DB72
:102A50002020024908834046BDE8F0810010024072
:102A600070B504464020084948832020488320460A
:102A7000FFF7B2FFFF20FFF7AFFF05462020024916
:102A80000883284670BD0000001002402DE9F04187
:102A900007460C46154640200B49488320204883B2
:102AA0003846FFF799FF8046002605E014F8010B31
:102AB000FFF792FF701CC6B2AE42F7DB202002493E
:102AC00008834046BDE8F0810010024070B505461D
:102AD0000C46402007494883202048832846FFF7BA
:102AE0007BFF06462046FFF777FF20200149088339
:102AF000304670BD001002400021082114E000F0B3
:102B000080021AB104220A4B1A8003E00422084B07
:102B10009B1C1A802022064B9B1C1A809B1E1A802D
:102B20004206100E4A1ED1B20029E8DC70470000B0
:102B3000180C0240704700000CB500200190009076
:102B40003448006840F480303249086000BF3148A2
:102B5000006800F4003000900198401C019000983B
:102B600018B90198B0F5A04FF1D12A48006800F4D7
:102B7000003010B10120009001E00020009000988A
:102B8000012846D123484030006840F08050214958
:102B9000403108602048006840F440401E49086009
:102BA0001C48083000681B49083108600846006866
:102BB00040F4004008600846006840F4A0500860F7
:102BC0001648091F0860081F006840F08070091F40
:102BD000086000BF0F48006800F000700028F9D0BE
:102BE00040F205700E4908600A480830006820F07D
:102BF00003000849083108600846006840F00200F8
:102C0000086000BF03480830006800F00C00082886
:102C1000F8D10CBD00380240007000400854400755
:102C2000003C0240042808D14FF0E021096941F03E
:102C300004014FF0E022116107E04FF0E021096943
:102C400021F004014FF0E02211617047704700004D
:102C500010B51548006840F4700013490860134827
:102C6000006840F001001149086000200F49083158
:102C700008600E4800680E4908400C4908600D487D
:102C8000091D0860081F006820F48020091F0860E3
:102C9000002006490C310860FFF74EFF4FF000603E
:102CA00001498039086010BD88ED00E0003802401D
:102CB000FFFFF6FE1030002410B501211B4800F084
:102CC0007CF801282CD11A480068008819491A4A52
:102CD000127821F812001648406801881548C8305B
:102CE000154A127820F8121011488068018813489C
:102CF000114A127820F812100D48C06801880F4858
:102D0000C8300D4A127820F812100B480078401C89
:102D10000949087008460078632801DD0020087022
:102D20000121024800F03AF810BD00000004004004
:102D3000740300208405002068010020140700208F
:102D40007FB505460C4601210220FFF7DDFC029508
:102D5000ADF804400020ADF80600ADF80C0001A964
:102D60000D4800F045F8012211460B4800F036F8F6
:102D70000121094800F015F81D208DF80000002001
:102D80008DF801008DF8020001208DF803006846DF
:102D9000FFF74AFC7FBD000000040040CA430282E6
:102DA000704721B1028842F00102028004E00288EB
:102DB0004FF6FE731A400280704730B5024600207D
:102DC00000230024158A05EA0103958905EA010418
:102DD00013B10CB1012000E0002030BD1AB183898D
:102DE0000B43838102E083898B438381704700001A
:102DF00000220288184B98420ED0184B98420BD0F4
:102E0000B0F1804F08D0164B984205D0154B984230
:102E100002D0154B984204D14FF68F731A404B885D
:102E20001A43124B984207D0114B984204D04FF6E8
:102E3000FF431A400B891A4302804B68C3620B8818
:102E40000385054B984202D0044B984201D18B7AFE
:102E50000386012383827047000001400004014083
:102E60000004004000080040000C0040001000403A
:102E70000014004010B540F225511D4800F03EF806
:102E800010B31B4800F064F8C4B21A48008800F47C
:102E90000040C8B91748008800F4804060B10A2C8F
:102EA00003D000201349088020E01248008840F435
:102EB00000401049088019E00D2C06D10D4800880B
:102EC00040F480400B49088010E00A480088C0F3B5
:102ED0000D0009490C5407480088401C054908802A
:102EE00008460088C72801DD0020088010BD0000CA
:102EF00000100140840100201C1E002070B5024615
:102F0000002400230025002040F66A16B14200D1BB
:102F100000BFC1F3421501F01F03012606FA03F3B7
:102F2000012D02D19689334006E0022D02D1168A86
:102F3000334001E0968A33400C12012606FA04F46D
:102F40001688344013B10CB1012000E0002070BDA0
:102F500001468888C0F30800704770B504460D46E6
:102F6000D4F8E4052946426820469047002070BD09
:102F700070B504460D464FF48970005D022802D0FA
:102F8000032812D100E000BF688801280CD100217D
:102F90004FF48C700151D4F8E4052946826820462C
:102FA0009047204600F075F804E02946204600F0DE
:102FB00021F800BF00BF70BD2DE9F04106460C4668
:102FC000154600272B46224600213046FDF760FDBE
:102FD0003846BDE8F0812DE9F04106460C4615461D
:102FE00000272B46224600213046FDF7ACFD38462F
:102FF000BDE8F08170B504460D4680212046FDF7FE
:103000007EFD00212046FDF77AFD204601F076F98D
:1030100070BD2DE9F04104460E4615460027C4F860
:103020009453C4F89053032140F2111001552B46DC
:10303000324600212046FDF72BFD3846BDE8F081E1
:1030400070B504460025052140F2111001550023FA
:103050001A4619462046FDF71BFD204601F04EF9A1
:10306000284670BD2DE9F04104460E46154600275E
:10307000C4F83C51C4F83851022140F211100155F6
:103080002B46324600212046FDF75DFD3846BDE85F
:10309000F08170B504460025042140F2111001555D
:1030A00000231A4619462046FDF74DFD204601F043
:1030B00025F9284670BD70B505460E46002E5DD137
:1030C00005F58E7440F21110405D022849D1A168C7
:1030D000E069884217D9A168E069401AE061E878A0
:1030E000012803D1D4E902100844E060A08B82B229
:1030F0002846E168FFF76FFF00231A461946284665
:10310000FDF7C6FC2DE0A168206AB0FBF1F201FBDF
:103110001200A8B9A168206A884211D3D4E9080135
:1031200088420DD2002211462846FFF754FF0020A6
:10313000606200231A4619462846FDF7A9FC10E0F4
:10314000D5F8E405C06848B14FF48970405D0328A4
:1031500004D1D5F8E405C168284688472846FFF71A
:103160006FFF4FF48B70405D012816D1284600F0A8
:1031700063FA00214FF48B7041550EE0D5F8E40559
:10318000406950B14FF48970405D032805D1D5F8EE
:10319000E4053146426928469047002070BD70B56D
:1031A00005460E46A6BB05F55D7440F21110405D64
:1031B00003283DD1A168E069884217D9A168E06978
:1031C000401AE061E878012803D1D4E902100844EC
:1031D000E060A368E069984201D2E06900E0A0687D
:1031E00082B22846E168FFF7E7FE21E0D5F8E40562
:1031F000006948B14FF48970405D032804D1D5F8C7
:10320000E4050169284688472846FFF742FF0FE09A
:10321000FFE7D5F8E405806950B14FF48970405D4F
:10322000032805D1D5F8E405314682692846904740
:10323000002070BD014600207047000070B50446B4
:103240000D46E888012804D029462046FFF7D2FE23
:103250001AE04FF48970005D022802D003280DD1D6
:1032600005E0012209492046FFF7FCFE0BE00122A0
:1032700004F588712046FFF7F5FE04E02946204654
:10328000FFF7B8FE00BF00BF70BD0000C001002006
:10329000F8B504460E46F0880090708800120828A1
:1032A00062D2DFE800F061040C186161575CA0781D
:1032B000D4F8EC150A6869469047054659E0A078AD
:1032C000D4F8E4158A6A6946904705460221697078
:1032D000C4F8F0554DE0B078062834D2DFE800F0AD
:1032E000030B131B232BA078D4F8EC154A6869460E
:1032F000904705462CE0A078D4F8EC158A6869461A
:103300009047054624E0A078D4F8EC15CA686946D1
:10331000904705461CE0A078D4F8EC150A69694688
:103320009047054614E0A078D4F8EC154A69694640
:10333000904705460CE0A078D4F8EC158A696946F8
:103340009047054604E031462046FFF753FEF8BD9E
:1033500000BF0EE031462046FFF74CFEF7E731464E
:103360002046FFF747FEF2E731462046FFF742FED0
:10337000EDE700BFBDF8000088B1F08878B1F088B3
:10338000BDF80010884202DDBDF8000000E0F088C2
:103390000090BDF8002029462046FFF763FE00BFDD
:1033A000D5E70146002002E0421CD0B2491C0A7851
:1033B000002AF9D17047000070B504460D464FF45D
:1033C0008970005D022802D0032813D100E000BFFD
:1033D00001200C4908604FF48C70005920B1084658
:1033E000006840F002000860022206492046FFF70C
:1033F00039FE04E029462046FFF7FCFD00BF00BF70
:1034000070BD0000C40100202DE9F04104460D46C6
:1034100017460026FCB12046FFF7C3FF022101EB4F
:10342000400038803A783046711CCEB22A540322CC
:103430003046711CCEB22A540AE014F8012B3046F3
:10344000711CCEB22A5400223046711CCEB22A54CE
:1034500020780028F1D1BDE8F0812DE9F041044643
:103460000F4615461E46DDF81880204600F034FC55
:103470002046FFF7DFFEC4F8E465C4F8E885C4F829
:10348000EC5539462046FDF7DFFED4F8E81508680C
:103490008047204600F004FCBDE8F08110B50446EA
:1034A000D4F8E405016A20468847002010BD10B515
:1034B0000446D4F8E405416A20468847002010BD40
:1034C0007CB505460024284601F014FA002865D092
:1034D000284601F01AFA0190019808B900207CBD35
:1034E0000198C0F3C04018B12846FDF7B3FC04436F
:1034F0000198C0F3804018B12846FDF717FC04433B
:103500000198C0F3400050B100200090009820F0D6
:103510000200801C00900098E968486100BF019893
:10352000C00F18B12846FDF715FD04430198C0F3FC
:10353000C02018B12846FDF7B1FD04430198C0F33F
:10354000C00018B12846FDF793FD04430198C0F36D
:10355000001018B12846FDF733FD04430198C0F36D
:10356000003018B12846FDF7EDFD04430198C0F383
:10357000403018B12846FDF70DFB04430198C0F315
:10358000005018B12846FDF7ADFE04430198C0F382
:10359000405018B12846FDF7BBFE044320469EE785
:1035A00090F8CC250A7090F8CD254A7090F8CE3569
:1035B00090F8CF2503EB02224A8090F8D03590F89E
:1035C000D12503EB02228A8090F8D23590F8D325DA
:1035D00003EB0222CA80CB884FF4A0721350012360
:1035E00040F211121354704710B5044600234022D4
:1035F00019462046FDF718FA002340228021204674
:10360000FDF712FA01214FF489700155A078D4F822
:10361000E82551688847002010BD10B50446D4F84D
:10362000E8150869804740F21310015D401E0155FE
:1036300003210155002010BD0146034802680869B6
:1036400042600020704700008801002010B5044649
:10365000D4F8E405C06920B1D4F8E405C169204676
:103660008847002010BD70B504460D46A88818BBD9
:10367000E88808BBA87800F07F064FF48970005DE9
:10368000032804D129462046FFF7B4FC18E04FF484
:103690008A70065531462046FDF723FA2046FFF78B
:1036A000F8FC26B102214FF48970015508E0012190
:1036B0004FF48970015503E029462046FFF79AFC34
:1036C00070BD70B504460D46D4F8E405294602687D
:1036D00020469047D4F8E81588688047002070BDE0
:1036E00070B504460D46A878304908700846007841
:1036F000012804DD29462046FFF77CFC55E04FF405
:103700008970005D022802D0032848D117E02748BD
:10371000007880B12548007884F8100103214FF427
:1037200089700155214801782046FFF7CAFF2046DD
:10373000FFF7AFFC02E02046FFF7ABFC34E01B488C
:10374000007880B902214FF489700155174800783C
:1037500084F81001154801782046FFF7FEFB20464B
:10376000FFF797FC1AE094F8100110490978884295
:1037700011D094F810112046FFF7EFFB0B480078AA
:1037800084F81001094801782046FFF79AFF204687
:10379000FFF77FFC02E02046FFF77BFC04E02946B0
:1037A0002046FFF727FC00BF00BF70BDC801002006
:1037B000F8B504460D460026688801280DD1012180
:1037C0004FF48C700151D4F8E405294682682046F4
:1037D00090472046FFF75DFC3FE0688802283CD117
:1037E0002879D0BB206940680090A8880612062E70
:1037F00022D2DFE806F02103090F151B009820F004
:103800007000103000901DE0009820F07000203013
:10381000009017E0009820F070003030009011E028
:10382000009820F07000403000900BE0009820F0ED
:1038300070005030009005E0009820F070001030CB
:10384000009000BF00BF05480099016001214FF4BE
:103850008B7001552046FFF71CFCF8BD8801002045
:103860001CB5044669462046FFF79AFE9DF8000005
:1038700000F01F0020B1012807D002280FD109E075
:103880006946204600F016F811E06946204600F02F
:1038900007F90CE06946204600F046F807E09DF87D
:1038A000000000F080012046FDF729F900BF00BFAD
:1038B00000201CBD70B505460C46002660780A281D
:1038C00029D2DFE800F01923281E280A0528140F42
:1038D00021462846FFF7DCFC22E021462846FFF778
:1038E000C2FE1DE021462846FFF7FAFE18E02146F9
:1038F0002846FFF7A3FC13E021462846FFF75CFDAE
:103900000EE021462846FFF753FF09E021462846EE
:10391000FFF72EFB04E021462846FFF76BFB00BFB4
:1039200000BF304670BD00002DE9F04105460E464F
:1039300000273479307800F06000202808D1D5F8CD
:10394000E40531468268284690473846BDE8F08154
:103950007078002857D001282BD0032875D14FF458
:103960008970405D022802D003281BD107E02CB1EA
:10397000802C03D021462846FDF7C1F817E0708857
:1039800030B92CB1802C03D021462846FDF7B7F87A
:10399000D5F8E40531468268284690472846FFF767
:1039A00078FB04E031462846FFF724FB00BF00BF48
:1039B00070E04FF48970405D022802D003281BD1CB
:1039C00007E02CB1802C03D021462846FDF797F85C
:1039D00017E0708878B95CB1802C09D02146284660
:1039E000FCF7FEFFD5F8E40531468268284690478B
:1039F0002846FFF74EFB04E031462846FFF7FAFA67
:103A000000BF00BF46E04FF48970405D022802D03D
:103A1000032837D107E02CB1802C03D0214628465B
:103A2000FDF76DF833E004F08000802812D104F037
:103A30007F0000EB800105F58E7000EBC1008078FF
:103A400020B101201549086016E022E0002013494A
:103A5000086011E004F0800070B904EB840105F502
:103A60005D7000EBC100807818B101200B4908603F
:103A700002E0002009490860022208492846FFF7B1
:103A8000F1FA04E031462846FFF7B4FA00BF00BF60
:103A900000E000BF00BF384658E70000BC0100202E
:103AA00070B504460D4600264FF48970005D03286A
:103AB00014D1287901280CDCD4F8E4052946826861
:103AC00020469047E88840B93EB92046FFF7E1FA22
:103AD00003E029462046FFF78DFA04E029462046F8
:103AE000FFF788FA00BF00BF304670BD10B504462E
:103AF0004FF48970015D401C01550421401E0155A1
:103B0000D4F8E815C8688047002010BD70B5054698
:103B10000C462DB92246064906A0FFF775FC04E0C5
:103B20002246034903A0FFF76FFC014870BD000067
:103B30002717002056435020436F6E6669670000C8
:103B400000200149087070474C0100200320014902
:103B5000087070474C01002002461220088001487E
:103B600070470000F40000200420014908707047ED
:103B70004C01002070470000022001490870704786
:103B80004C01002001200149087070474C010020C1
:103B90007047000070B505460C462DB9224606490F
:103BA00006A0FFF731FC04E02246034903A0FFF71B
:103BB0002BFC014870BD0000271700205643502001
:103BC000496E7465726661636500000002460420F8
:103BD00008800148704700001001002070B50546BC
:103BE0000C462246024903A0FFF70EFC004870BDB8
:103BF0002717002053544D6963726F656C656374B9
:103C0000726F6E696373000070B505460C462DB97E
:103C10002246064906A0FFF7F7FB04E022460349C7
:103C20000CA0FFF7F1FB014870BD00002717002032
:103C300053544D3332205669727475616C20436F52
:103C40006D506F727420696E204853206D6F6465EB
:103C50000000000053544D33322056697274756170
:103C60006C20436F6D506F727420696E2046532034
:103C70004D6F64650000000070B505460C461A20C3
:103C80002080FDF711FD014870BD000014010020E7
:103C90000246432008800148704700008000002051
:103CA00038B504464FF4C060FEF7FAFC43208DF8A7
:103CB0000000074800788DF80100064800788DF86C
:103CC000020001208DF803006846FEF7ADFC38BD08
:103CD0004D0100204E0100201CB50446012108467C
:103CE000FEF7F2FC4FF4C850009003208DF8050059
:103CF00002208DF8040000208DF806008DF80700E2
:103D000069460D48FDF73FFC0A2208210A48FDF7E5
:103D100082FC0A220B210848FDF77DFC0A220C21B7
:103D20000548FDF778FC01218803FEF7FDFC012121
:103D30008020FEF7D9FC1CBD0000024010B50446EF
:103D40004FF47A7104FB01F000F001F810BD10B5DA
:103D50000022C0EB0013DB000724B3FBF4F100BF2B
:103D6000531C1A468B4200D910BDF9E73EB50446F4
:103D700000250020029001900090207A01283DD17A
:103D8000E068806B0190019820F480300190607AA7
:103D900028B1019820F4801000F58010019001985E
:103DA000E168886300200290E068C0680290029891
:103DB00020F040000290029820F4800002900298C7
:103DC00020F400300290029820F400200290029823
:103DD000E168C860204600F063F9E078012843D12B
:103DE000009820F01E000A300090009820F020007B
:103DF000203000900098E168886035E0E068C06895
:103E00000290029820F04000403002900298E16851
:103E1000C860204600F044F900200190019820F489
:103E2000803000F580300190019820F4802000F56A
:103E300080200190019820F4002000F500200190DE
:103E4000019820F4001000F500100190607A28B16C
:103E5000019820F4801000F5801001900198E1682D
:103E600088631420FFF76AFFE07801280FD1E0682B
:103E700080680090009820F01E000A3000900098A2
:103E800020F02000203000900098E16888602846EB
:103E90003EBD70B588B0044600260020079006900D
:103EA0000590049003900021D4F80C010160206972
:103EB00000680690069820F4C05006900699206984
:103EC0000160E07A01283FD10321204600F006FD81
:103ED0008020E1684862059880B200F500100590E6
:103EE00005986FF30F00803005900598E1688862AF
:103EF000059800EB1041049861F30F0004900498BA
:103F000080B200F5000004900498E168C1F8040153
:103F1000049800EB104161F30F000490049880B204
:103F200000F5001004900499E068C0F808110498A6
:103F300000EB104161F30F000490049880B20490EC
:103F40000499E068C0F80C111021204600F07AFCBA
:103F5000204600F051FC0021206901612069416187
:103F6000491E2069816100212069C16100252CE082
:103F700004F1180050F82500006807900798C00F5A
:103F800070B100200790079820F0804000F1804039
:103F90000790079820F0006000F10060079001E0B2
:103FA0000020079004F1180050F8250007990160DF
:103FB000002104F1180050F825000161FF2104F1EF
:103FC000180050F8250081606D1C6078A842CFD899
:103FD00000252CE004F1540050F825000068019001
:103FE0000198C00F70B100200190019820F080402E
:103FF00000F180400190019820F0006000F1006025
:10400000019001E00020019004F1540050F82500D7
:1040100001990160002104F1540050F8250001616C
:10402000FF2104F1540050F8250081606D1C607878
:10403000A842CFD800200390039820F4807000F5A8
:1040400080700390206900690399884308432169BF
:104050000861E07801281DD100200290029820F02C
:104060000100401C0290029820F00200801C029087
:104070004021029861F38A000290029820F4803077
:1040800000F580300290029861F359400290029945
:1040900020690163204600F050FB304608B070BD37
:1040A000F8B50446002600250020009000BF03203C
:1040B000FFF74DFEE06800690090681C0546134953
:1040C000884201D90020F8BD0098C00F0028EED02A
:1040D0000025009820F00100401C00900098E16845
:1040E000086100BFE06800690090681C0546074948
:1040F000884200D904E0009800F001000028F1D1C6
:1041000000BF0320FFF723FE3046DCE7400D03002D
:1041100008B50146002000220092009A22F0010218
:10412000521C0092CA689268009B9A43CB689A60BE
:1041300008BD0EB501460020002200920A6992686F
:1041400002928A6912680192029AC2F3410232B164
:10415000012A05D0022A09D0032A0DD101E000BFAF
:1041600000BF019A6FF30A0201920AE0019A6FF30D
:104170000A02D21C019204E0019A6FF30A02019232
:1041800000BF00BF019B8A691360009A22F480720D
:1041900002F5807200920A695268009B9A431A43A2
:1041A0000B695A600EBDFCB50246002000240025B4
:1041B000019500954D78012D52D193691D680195A7
:1041C0001D6900954D6955B9009D25F07F05009545
:1041D000009D25F4002505F50025009516E08E6864
:1041E0004D69B54207D98D684D610E7A009D66F321
:1041F0000605009504E00E7D009D66F3060500951A
:10420000009D25F4002505F500250095009D1D6104
:10421000D578012D06D10F7802F1180555F82750F1
:104220000E696E61019D25F0806505F1806501953F
:10423000019D25F0004505F100450195019D1D609A
:10424000D578002D59D14D69002D56D00E78012515
:10425000B5402C4315696D6B2543166975634CE0B9
:104260000E7802F1540555F826502D6801950E7808
:1042700002F1540555F826502D6900954D695DB938
:104280000E7A009D66F306050095009D25F4002535
:1042900005F5002500950CE08D684D610E7A009DB6
:1042A00066F306050095009D25F4002505F500251B
:1042B00000950F7802F1540555F82750009E2E61A5
:1042C000D578012D06D10F7802F1540555F8275005
:1042D0000E696E61019D25F0806505F1806501958F
:1042E000019D25F0004505F1004501950F7802F18B
:1042F000540555F82750019E2E60FCBD0CB50021D9
:104300000191019921F0C04101F1C0410191019950
:1043100021F4002101F500210191019921F07F0193
:1043200018310191019A416D0A61C178012915D1B5
:104330000021009100F2CC51426D5161416D09683C
:104340000091009921F0004101F1004100914FF0EE
:1043500080210091009A416D0A6000BF0CBD3CB500
:10436000024600200024019400944C78012C0CD1CA
:104370000D7802F1180454F825300D780124AC4072
:10438000009D64F30F0500950BE00D7802F15404D5
:1043900054F825300D780124AC40009D64F31F458E
:1043A00000951C680194019CC4F3C034E4B90D89E4
:1043B000019C65F30A040194CD78019C65F3934454
:1043C00001948D79019C65F399540194019C24F02A
:1043D000805404F180540194019C24F4004404F5B9
:1043E00000440194019C1C601469E469009D2C4305
:1043F0001569EC613CBD38B50346002000240094EB
:104400004C78012C05D10D7803F1180454F82520BF
:1044100004E00D7803F1540454F825201468009446
:10442000009C24F400140094CC78032C02D0CC78A7
:10443000022C05D1009C24F0805404F18054009497
:10444000009C146038BD3CB5024600200024019455
:1044500000944C78012C0CD10D7802F1180454F81A
:1044600025300D780124AC40009D64F30F050095C4
:104470000BE00D7802F1540454F825300D78012436
:10448000AC40009D64F31F450095019C24F400445A
:104490000194019C1C601469E469009DAC4315699A
:1044A000EC613CBD38B503460A4600200024009468
:1044B0005478012C18D1157803F1180454F82510FC
:1044C0000C680094009CE40F2CB1009C24F0804404
:1044D00004F180440094009C24F4001404F50014BA
:1044E0000094009C0C600EE0157803F1540454F81D
:1044F00025100C680094009C24F4001404F50014AA
:104500000094009C0C6038BDFEB505460C460026A4
:104510000027002002900190607801287ED1217848
:1045200005F1180050F8210000680290217805F18B
:10453000180050F8210000690190606948B901989D
:104540006FF3120001900121019861F3DC400190AA
:1045500017E06169019861F3120001906069401EE3
:10456000A1680844B0FBF1F1019861F3DC400190CF
:10457000E078012805D1019820F0C04000F10050FA
:104580000190227805F1180050F82200019901618C
:10459000E878012807D1227805F1180050F82200A8
:1045A000216941610DE0E07801280AD0606940B1DD
:1045B0002178012000FA01F72869406B3843296906
:1045C0004863E078012813D128698068009000983A
:1045D000C0F3002030B9029820F0005000F10050E4
:1045E000029005E0029820F0805000F18050029087
:1045F000029820F0806000F180600290029820F024
:10460000004000F100400290227805F1180050F8B7
:10461000220002990160E078012800E008E070D1F2
:10462000A08A83B222782846E16800F034FA68E074
:10463000217805F1540050F821000068029021789B
:1046400005F1540050F8210000690190606950B9EB
:10465000A168019861F3120001900121019861F3B2
:10466000DC40019017E0A068401E61690844A16821
:10467000B0FBF1F1019861F3DC4001900198C0F3C7
:10468000C940A1684843019960F312010191019862
:10469000C0F312006061227805F1540050F8220046
:1046A00001990161E878012806D1227805F15400CA
:1046B00050F8220021694161E07801280ED160792B
:1046C00030B1029820F0005000F10050029005E057
:1046D000029820F0805000F180500290029820F063
:1046E000806000F180600290029820F0004000F1AC
:1046F00000400290227805F1540050F822000299FF
:1047000001603046FEBD08B500210091491EC26817
:1047100051606FF08041C2685161009921F0004101
:1047200001F100410091009921F4006101F500615F
:1047300000910099C268916108BD38B50446002512
:1047400000200090E16888616FF08040E168486176
:104750002046FFF7D8FFE07820B9009820F010003D
:1047600010300090009820F4006000F50060009088
:10477000009820F4805000F580500090009820F4BC
:10478000005000F500500090009820F4802000F5C3
:1047900080200090009820F4002000F50020009078
:1047A000009820F0080008300090009820F4801055
:1047B00000F580100090009820F4001000F5001023
:1047C0000090E0688069009988430843E168886147
:1047D000284638BD08B50146002000220092009A04
:1047E00022F00102521C0092CA689268009B1A4390
:1047F000CB689A6008BD0000F8B504460025002685
:1048000000200090009820F01000103000900098D8
:10481000E168086100BFE06800690090701C06460E
:104820000749884200D904E00098C0F3001000282E
:10483000F1D100BF0320FFF78AFA2846F8BD000037
:10484000400D0300F8B504460D4600260027002061
:104850000090009820F0200020300090009865F330
:104860008A1000900098E168086100BFE068006964
:104870000090781C07460749884200D904E0009858
:10488000C0F340100028F1D100BF0320FFF75FFA0A
:104890003046F8BD400D030008B5014600200A6906
:1048A00092680092009AC2F3410232B1012A06D006
:1048B000022A07D0032A07D102E0032006E000BF46
:1048C000022003E0012001E0022000BF00BF08BD7C
:1048D0000146C868406900F00100704708B50269E8
:1048E00012680092009A61F301020092009B026933
:1048F000136008BD00B502461046FFF7E9FF012826
:1049000001D0012000BD0020FCE701460020CA685C
:104910005069CA6892691040704701460869826907
:104920000869C069024090B270470146086982690F
:104930000869C0690240100C7047024602F1540336
:1049400053F82130986813695B6918407047F0B5D7
:1049500003460024D01CC71700EB9777BD10D3F88F
:10496000D06000BF03E030680860091D641CAC42E1
:10497000F9D30846F0BD000070B502460C4600238E
:1049800000200025D5700125957040259580012CCB
:104990000CD14FF0A0430125D572082515700425D0
:1049A00055709D15D580022515720AE04CB9254B2E
:1049B0000025D5720C251570062555704FF4A0659D
:1049C000D580D36003F500651561002110E003F583
:1049D000106505EB411602F1180545F8216003F555
:1049E000306505EB411602F1540545F82160491C7C
:1049F00055788D42EBD803F5806555614035C2F896
:104A0000CC50002108E003F5A06505EB411602F14A
:104A1000900545F82160491C15788D42F3D8002196
:104A200008E003F5805505EB013602F1D00545F8A5
:104A30002160491C15788D42F3D803F56065C2F8F2
:104A40000C5170BD00000440F8B504460D46002628
:104A5000E068C0680090009820F000500090009836
:104A600020F080400090012D06D1009820F00050E9
:104A700000F10050009006E02DB9009820F0804031
:104A800000F1804000900098E168C8603220FFF794
:104A900055F93046F8BD2DE9F04104460026E0788E
:104AA000B0B900270020DD1C4FEAE57805EB9878C7
:104AB0004FEAA80704F1D00555F822C000BF04E072
:104AC0000D68CCF80050091D401CB842F8D300BF57
:104AD0003046BDE8F08100BFFEE703460020704786
:104AE00070B504460D46294620460EF0E3FB002033
:104AF00070BD002070470020704700207047000004
:104B00007CB5044600201D46164600290BD0491EE0
:104B1000CDE90041044B6A462946304600F0D8F8FA
:104B2000009A002111707CBDFF53000802E008C804
:104B3000121F08C1002AFAD170477047002001E017
:104B400001C1121F002AFBD1704700002DE9FF5F51
:104B500082B00021DDE90430020DDDF840B00343EE
:104B600018D044F61050A2F2FF32424315141198A7
:104B700001281FD0A5EB0B00401C5FEA000A4FF094
:104B800000064E4FDFF83891B046504615D5CAF1B1
:104B9000000413E0119801244AA3012801D16FEA0F
:104BA0000B010298119AC0E90031C0E9024206B037
:104BB000BDE8F09FCBF10000DFE704460021404A4A
:104BC000491842EB0450CDE9001012E0E00707D08D
:104BD00032463B4640464946FBF722FC8046894622
:104BE00032463B4610461946FBF71AFC06460F466E
:104BF0006410002CEAD1DDE90401DDE90023BAF1FB
:104C0000000F06DAFBF70CFC42464B46FBF708FCAC
:104C100005E0FBF777FC42464B46FBF773FC044686
:104C20000E460022284BFBF7F5FC03D84FF0FF306F
:104C3000014607E00022254B20463146FBF749FBA1
:104C4000FBF7CFFC102409E0002C0ADB0A2200232A
:104C5000FBF70EFB039B30321A55641E50EA01022B
:104C6000F2D1641C039AC4F111031444119A012A6D
:104C700003D0012208430DD10AE0084304D00020EC
:104C80004FF0110B119072E7A3EB0B056D1E0DE0B9
:104C90005B4504DD4FF0000205F1010504E003DA95
:104CA0004FF00002A5F10105002AECD002981199FD
:104CB000C0E90231C0E9004579E700000000144076
:104CC0000000F03F300000000000F0430000E03F33
:104CD0002DE9FF4F95B09B468946064600250FE219
:104CE000252877D100242746F84A0121059400E0C1
:104CF000044316F8013F203B01FA03F01042F7D1BC
:104D000030782A2811D06FF02F033078A0F13002CC
:104D1000092A16D8059A44F0020402EB820203EB3A
:104D200042021044761C0590EFE759F8042B0592D7
:104D3000002A03DA504244F40054059044F002047F
:104D4000761C30782E2816D116F8010F44F0040492
:104D50002A280DD06FF02F023078A0F13003092BF4
:104D600009D807EB870302EB4303C718761CF3E768
:104D700059F8047B761C30786C280FD006DC4C2860
:104D800017D068280DD06A2814D104E0742810D0F8
:104D90007A280FD10DE044F400140AE044F48014A2
:104DA00001E044F440147278824202D104F5801488
:104DB000761C761C307866280BD013DC582877D008
:104DC00009DC002875D04528F6D04628F4D04728BD
:104DD0001AD19DE118E0632835D0642879D0652880
:104DE00012D195E1702873D008DC6728F1D06928CA
:104DF0006FD06E280DD06F2806D1B5E073282CD067
:104E0000752875D0782874D05A46179990476D1C2C
:104E100075E1C4F30250022809D003280DD0D9F857
:104E2000001004280DD00D6009F1040967E1D9F8DC
:104E30000010EA17C1E90052F6E7D9F800100D801A
:104E4000F2E70D70F0E719F8041B8DF80010002050
:104E50008DF80100EA46012003E059F804AB4FF059
:104E6000FF3061074FF0000102D40DE008F10101AD
:104E70008846B9420FDA8045F8DB1AF80810002995
:104E8000F4D108E008F1010188468142FADB1AF802
:104E900008100029F6D105985B46A0EB08072146CB
:104EA0003846179A00F094FA284400EB080507E00A
:104EB0004DE029E10DE01AF8010B5A461799904789
:104EC000B8F10108F7D25B4621463846179A13E13C
:104ED00042E00A220092C4F302524FF0000A022A72
:104EE00008D059F804CB032A4FEAEC710AD00DE040
:104EF00029E02AE009F1070121F00702F2E802C1E6
:104F0000914609E00FFA8CFC4FEAEC71042A03D1B8
:104F10004FFA8CFC4FEAEC71002907DA0A460021AF
:104F2000DCF1000C61EB02012D2202E0220504D528
:104F30002B228DF80420012203E0E20701D0202279
:104F4000F7E7904659E00A2102E010220DE0102117
:104F50004FF0000A00910BE010224FF0000A44F0DD
:104F600004040827009203E008224FF0000A009290
:104F7000C4F30252022A05D059F804CB0021032AB7
:104F800008D009E009F1070121F00702F2E802C1A7
:104F9000914605E01FFA8CFC042A01D10CF0FF0CAD
:104FA0004FF00008220728D5702806D0009B83F018
:104FB000100353EA0A0305D00EE040228DF80420C6
:104FC000012208E05CEA010206D030228DF80420BC
:104FD0008DF8050002229046009B83F0080353EAF7
:104FE0000A030AD15CEA010201D1620705D5302229
:104FF0008DF804204FF001087F1E582804D034A0FB
:1050000003900EA802900DE036A0F9E753466046E3
:10501000009AFBF72DF984460398825C0298401EA3
:10502000029002705CEA0100F0D1029806A9081A09
:1050300000F1200A600702D524F4803400E0012743
:10504000574502DDA7EB0A0000E0002000EB0A0153
:10505000009005984144401A0590E00306D45B4651
:105060002146179A059800F0B3F90544002706E099
:1050700001A85A46C05D179990476D1C7F1C474593
:10508000F6DBE0030CD55B462146179A059800F045
:105090009FF9054404E030205A46179990476D1C4B
:1050A0000099481E00900029F5DC08E0029802995A
:1050B0005A460078491C0291179990476D1CBAF125
:1050C0000001AAF1010AF1DC65E1000009280100F4
:1050D000303132333435363738396162636465666E
:1050E0000000000030313233343536373839414230
:1050F000434445460000000000F058F90544761C82
:10510000307800287FF4ECAD19B02846BDE8F08F68
:10511000620700D4062709F1070222F0070CFCE819
:105120000223E14603F000485FEA080C02D00FF2C8
:10513000702C0DE05FEA045C02D50FF2682C07E0EA
:105140005FEAC47C02D00FF2602C01E0AFF2700C79
:105150004FF0FF3823F00043CDF850C065280CD045
:1051600006DC452809D046281DD047283DD13DE022
:10517000662818D067287ED138E00021112F01DB86
:10518000112000E0781CCDE9000106A90EA8FFF768
:10519000DDFCDDE90F010E9A03910021009207F179
:1051A000010A04914DE04FF000400097CDE9011055
:1051B00006A90EA8FFF7CAFCDDE90F0203920E9BB9
:1051C00011990022DDF80CA00093049211B9791C0A
:1051D00000EB010AB7EB0A0004D4C0F1FF3007F17D
:1051E000010A0490AAEB0700019044E0012F00DAC5
:1051F00001270021112F01DD112000E03846CDE903
:10520000000106A90EA8FFF7A1FCDDE90F010E9A27
:105210000391002104910092BA4621070CD403990E
:10522000514500DA8A46BAF1010F05DD009AAAF16C
:105230000101515C302908D0B84202DA10F1040FA4
:1052400006DA0121CDE9011015E0AAF10101E9E733
:10525000002805DC049901440491AAEB000102E056
:10526000411C514500DD8A460499401A401C0190BA
:105270004FF000400290200704D40198504501DB14
:10528000CDF8048000208DF84F0002980DF14F07F3
:10529000B0F1004F25D02B200E9002984FF002085D
:1052A00000280CDA404202902D200E9007E00A21DF
:1052B0000298FAF7C7FF3031029007F8011DB8F1E4
:1052C0000001A8F10108F2DC02980028EFD1791E54
:1052D0000E980870307800F0200040F0450007F884
:1052E000020D12A8C01B00F107081498007800B145
:1052F000012000EB0A01019801EBE071059841449F
:10530000401A401E0590E00306D45B462146179ADA
:10531000059800F05DF805441498007818B15A46D5
:10532000179990476D1CE00324D55B462146179AD8
:10533000059800F04DF805441CE00498002807DBB0
:10534000DDE90301884203DD0098405C179901E024
:10535000179930205A469047049805F10105401CE2
:1053600004900198401E019004D12E205A461799AE
:1053700090476D1CBAF10001AAF1010ADDDC05E0DD
:1053800017F8010B5A46179990476D1CB8F10001A8
:10539000A8F10108F4DC5B462146179A0598ABE6B4
:1053A0002D0000002B000000200000002DE9F0413E
:1053B000044600251E461746880404D405E03946F5
:1053C0002020B0476D1C641EF9D52846BDE8F08149
:1053D0002DE9F041044600251E469046C80301D53C
:1053E000302700E02027880404D505E041463846F0
:1053F000B0476D1C641EF9D52846BDE8F0814A68A7
:10540000002A06D00A68531C0B6010704868401EC2
:10541000486070470848094948620949074881625D
:105420000849C162084809490860801C4860801C1E
:105430008860801CC8607047CD2900088403002064
:105440007509000879160008540100207403002033
:1054500070B5044694F82000C0F3400020B994F8D9
:10546000200000F0010070B194F82000C0F340006B
:10547000C8B994F8200000F00100A0B194F8200011
:10548000C0F3800078B1A56826682146174809F066
:105490004BFC204609F0ECFC0120154908700DB1C9
:1054A0003046A8471FE0E08B404200B2608394F88A
:1054B000200000F00100B0B194F82010C1F3800189
:1054C00019B9A18B494209B261831034217C890842
:1054D000C943227C61F382022274206861682160E2
:1054E0006060103C00BF0248007870BDE0610020A1
:1054F000C80200202DE9F04107462F4809F06EFB55
:10550000044608E0206A20F00800206221462A486C
:1055100009F069FB0446002CF4D1284800680BF020
:10552000B9FE0646244809F059FB04463CE0002039
:105530002349087094F82000C0F3C00038BB206AEB
:1055400020F0080008302062608B304400B2608395
:10555000B4F91A0000281ADBB4F91A00218B88422A
:1055600002DD208B00B260832046E1688847054653
:10557000606818B12946D4E900029047B4F91A00CE
:10558000218B884202DB2046FFF762FF00BF0C48F8
:10559000007820B1084809F021FB044604E02146C8
:1055A000054809F020FB0446002CC0D10BF080FE1A
:1055B00002490860BDE8F081E0610020C4020020DB
:1055C000C802002030B503460BB9002030BD012BC6
:1055D00001D1CC20FAE7C1EBC105581EB5FBF0F0B4
:1055E000C4B20248005D5043000AEFE75445010889
:1055F00010B500F087F810BD10B504466FF0040038
:10560000FDF710FBE11704EB5171C1F3C701074A25
:1056100011701046007800EB4001C1EBC0104FF64E
:10562000FF7101EAC0000249088010BD7A01002024
:105630007C01002070B504464FF4077094FBF0F035
:10564000C6B24FF4077094FBF0F100FB114085B235
:1056500005E04FF4077000F02FF8701EC6B2002E60
:10566000F7D115B1284600F027F870BD0146114A60
:1056700012784A434FF0E0235A6100229A611A4699
:10568000126942F001021A6100BF4FF0E022106976
:1056900000F001021AB100F48032002AF5D04FF078
:1056A000E022126922F001024FF0E0231A61002289
:1056B0009A6170477A0100200146114A12884A43D4
:1056C0004FF0E0235A6100229A611A46126942F0B3
:1056D00001021A6100BF4FF0E022106900F00102E0
:1056E0001AB100F48032002AF5D04FF0E02212699E
:1056F00022F001024FF0E0231A6100229A61704704
:105700007C01002010B5002463E03348007848B9DC
:10571000324830F8140002B231480168314800685C
:1057200003F0B8FC2C48407850B92C48C83030F809
:10573000140002B22C4801682A48006803F0AAFC51
:105740002548807848B9294830F8140002B2284822
:1057500001682448006803F09DFC1F48C07850B9D8
:105760002248C83030F8140002B2224801681D48AF
:10577000006803F08FFC18480078022806D1002248
:10578000174801681748006803F084FC1248407805
:10579000022806D10022144801681248006803F06C
:1057A00079FC0D488078022806D100221048016853
:1057B0000C48006803F06EFC0748C078022806D148
:1057C00000220C4801680748006803F063FC601C75
:1057D000C4B2632C99DD10BD640100208405002053
:1057E0000000002014000020040000201407002006
:1057F000080000200C00002070B504460D4600266D
:10580000207800F0010068B92068B5EB500F09D886
:105810002946204600F020F8206820F00100401CB6
:105820002060261D304670BD10B50146002011B91C
:10583000084A10680CE00A1D0B6802EB5300031DB8
:10584000044C246804F52044A34200D3002000BF88
:1058500010BD0000EC02002030B501F0030212B1CF
:1058600021F00301091D0A1D0368B2EB530F01D19A
:10587000026851080268B1EB520F0ED0031D5A188E
:10588000146824F0010414600468C1EB5404241F5C
:10589000156864F35F05156000BF026861F35F027D
:1058A000026030BD10B5002821D0114B0022001F2E
:1058B000196803E0814203D80A4649680029F9D1F2
:1058C00052B11368841A9C4204D1006818441060D5
:1058D000104602E0506000E0186039B102680B1A0F
:1058E000934203D10B681A4402604968416010BDBD
:1058F0005803002010B500F0D9FE0DF03FFDFFF772
:1059000089FD00F0F3FE00F065FE0DF0F1FA00F005
:1059100005F808F0B7F90DF079FC10BD0B480C49FB
:1059200088650C490A48C1650B4901660B49416607
:105930000B4981660B49C1660B4901670B494167F9
:105940000B4981670B49C167704700008720000839
:1059500084030020DD1600080D1C0008C71C000889
:10596000831D0008831400080515000809180008A5
:105970009D1900088D1B000801460020302905DB19
:10598000392903DCA1F13002D0B21CE0612902DB2D
:10599000A1F12002D1B2A1F14102062A10D2DFE822
:1059A00002F0030507090B0D0A200BE00B2009E0AC
:1059B0000C2007E00D2005E00E2003E00F2001E0A1
:1059C000002000BF00BF704710B540201349488336
:1059D000052213493020FDF759F8052211492A20E4
:1059E000FDF754F801212120FDF770F80121222054
:1059F000FDF76CF81A212420FDF768F828212520EE
:105A0000FDF764F80F212620FDF760F80E21202015
:105A1000FDF75CF840200149088310BD00100240EA
:105A20004C4401085144010870B504460D46206CF1
:105A3000296830F821102182206C296800EB810050
:105A400041886182B4F91410B4F9100081420DD17B
:105A5000B4F91610B4F91200814207D1287A01284E
:105A600004D104F10C0000F0FDFA03E004F10C0095
:105A700000F0F4FB218AA182618AE18270BD0000FE
:105A80002DE9FF5F0446656903E028460AF0B1F896
:105A9000054628460AF079F808B1002DF5D10DB970
:105AA000BDE8FF9F28460AF06AF800B9F8E7218AA6
:105AB000A089084401B22182618AE089084401B2C8
:105AC0006182207F00F00100E0B9B4F910000028E5
:105AD00002DDB4F9100002E0B4F9100040420A28D7
